:400000000080002011000000791000007910000008B5044B1A6803F53F5302331A6001F04BF800BFFA46004010B5054C237833B9044B13B10448AFF300800123237010BD21
:400040006082FF1F00000000A4250000084B10B51BB108490848AFF300800848036803B910BD074B002BFBD0BDE81040184700BF000000006482FF1FA4250000C880FF1F3E
:400080000000000008B5002001F09CFB08BD00BF684620F007018D4619B572B6EFF311841E4B1B68DBB20F2B10D9103B23F0030202F1604202F564421168DB0003F01803BE
:4000C000E0229A400A4022FA03F306E00F2B03D1134B1B681B0E00E0002383F31188114A136801331360012B01D101F0F1FF62B6FFF7C8FF72B684F3118801F0A3FD094A6B
:400100001368013B13601BB901F0EBFF01F0AFFF62B6BDE819408546704700BF04ED00E020ED00E00C9DFF1F08B562B6054A064B1A60064A136843F002031360002001F0F5
:40014000B3FEFBE73F19010014E000E010E000E008B501F05FF800F0B5FD01F00BFF094A136843F005031360012001F069F9022001F066F9FF21044800F0CCF801F0DCFE00
:4001800008BD00BF10E000E05C89FF1F00BFFDE710B582B002AC002344F8043D012001F053FC2146022001F095FB019801F062FB0DF10301054800F08FF89DF8030001F05F
:4001C0005BF801F0B9FE02B010BD00BF5C89FF1F10B516E001F03AF8C4B2302C0AD1022000F08AFD204601F047F80121022001F099FB06E0204601F03FF82146034800F02A
:4002000053F801F02DF80028E4D110BD5C89FF1F684620F007018D4619B572B6EFF311841E4B1B68DBB20F2B10D9103B23F0030202F1604202F564421168DB0003F0180317
:40024000E0229A400A4022FA03F306E00F2B03D1134B1B681B0E00E0002383F31188114A136801331360012B01D101F031FF62B6FFF7AEFF72B684F3118801F0E3FC094A84
:400280001368013B13601BB901F02BFF01F0EFFE62B6BDE819408546704700BF04ED00E020ED00E00C9DFF1FC27903799A4210D202688379D15403798179B1FBF3F203FB66
:4002C0001213DBB201338371C3790133C371002070476FF007007047C3798BB102684379D35C0B7043790133DBB20179B3FBF1F201FB12334371C379013BC3710020704744
:400300006FF00800704700BF0023C371437183711846704710B504460171084602F0B6F820602046FFF7F0FF002010BD00B583B001A801F01FFC0198013003B05DF804FB37
:40034000014B1868704700BF041000E001300E4B184003D5013860F001000130002308E00130094B184003D5013860F0010001300B46064A32F8302012B1591C012BEFDD0C
:400380000AB14FF0FF30704701000080F09CFF1F294B9B68013B692B4AD8DFE803F03F4143454749494949494949494949494949494949494949494949494949494949497B
:4003C00049494949494949494949494949494949494949494949494949494949494949494949494949494949494949494949494949494949494949494949494949494949BD
:400400004949354B37393B3D0C4870470C4870470C4870470C4870470C4870470C4870470C4870470C4870470C4870470C487047002070470B4870477C82FF1FA82500008A
:40044000142600004826000074260000A8260000DC26000008270000382700006427000098270000E025000070B4EFF31086012383F310881E4B1D6A002207E022F00303AE
:400480001B4C23445B6A834203D02032AA42F5D32A46B2F5A06F22D2154B22F003041C446062141D24331C44002304E0C85CE054C85C20B10133182BF8D900E00133C85C9A
:4004C00008B17F2BFAD90A4909698B4201D908490B61AA4207D12035054B1D6203E0044AD3680133D36086F3108870BC704700BF7C82FF1FF0B4EFF31086012383F31088C5
:40050000164BD3F82455002308E023F00302134C2244D2F82825824203D00833AB42F4D32B46B3F5A07F11D29C080C4A02EB8407C7F82805013402EB8402C2F82815AB428C
:4005400008D10835054BC3F8245503E0034A53690133536186F31088F0BC70477C82FF1F10B50446274BD868B0F1FF3F0ED1FFF7EDFE244BD860B0F1FF3F07D1224AD2F889
:4005800068360133C2F86836002010BD1D4BD8681E4B03EBC0035B881B1B002B1EDA1B4B022223F8302003EBC0035988154A13685B1A13601269934201D2124A1361FFF7F4
:4005C000C5FE104BD860B0F1FF3F07D10E4AD2F868360133C2F86836002010BD094AD1680A4B03EBC1035868011959605988091B5980A4B213681C1B146013699C4200D209
:40060000146110BDCC80FF1F7C82FF1FF09CFF1F10B5EFF31084012383F310880C4BDB699BB11420FFF79CFF78B10A4A02600422828041F6A122C2800022826020228281A3
:400640002822C28108210182428284F3108810BD7C82FF1F0046535070B5EFF31086012383F310880F4BDB69A3B917E02020FFF777FF054648B90BE0E1180A4A02EB81023C
:40068000526A45F82320013300E00023072BF3D9083400E00024B4F5A07FE7D386F3108870BD00BF7C82FF1F70B5EFF31086012383F310880F4BDB69ABB917E00820FFF708
:4006C0004FFF054650B90CE0E1180A4A02EB8102D2F8282545F82320013300E00023012BF2D9023400E000244F2CE7D986F3108870BD00BF7C82FF1F2DE9F84F002400E0FB
:4007000001340B5D0BB1332CFADD261D00D50336B61018B94FF0900A002302E04FF0910A01239F001E440F2E0ADD0F3EB600244B9B699E4201D9224B9E61C7F13C040F2678
:40074000EFF31088012383F310881D4BDB699BB30D468346B01C1A4AD2F86C360133C2F86C368000FFF7FCFE814628B33603B6B24AEA060AA0F800A0114BB3F86C364380F0
:40078000FFF7DEFDC9F80400BBF1000F01D0C9F808B009F10809002304E0DA19E95C09F8021001339C42F8DCC7F13C039C4203DA3C44002309F8043088F31088BDE8F88F92
:4007C0007C82FF1F08B5FFF797FF08BD08B5064BDB693BB1FFF7DCFD014618B1034B1868FFF7F0FF08BD00BF7C82FF1FEC9CFF1F30B40F4B1860EFF31085012383F310885A
:4008000000230EE00B4901EBC30040F6C4124280074C246802FB03424260002221F833200133012BEEDD85F3108830BC704700BF7C82FF1FF09CFF1F1C4BDB69834234D0AE
:4008400070B50446FFF772FD0546EFF31086012383F31088154BDC6100B9022514B3144C2046FFF7C5FF2046FFF7C2FF0F4C0023C4F86C36FF220F4B1A75FFF7C9FEFFF735
:40088000EBFEFFF711FFD4F87016D4F874365A1CC4F874262A46012000F04CF900F0C6F9FFF794FF86F3108870BD70477C82FF1F6489FF1FCC80FF1F08B5084B9B685BB90A
:4008C000064B9860FFF782FF0549064B186800F07FF80020FFF7B0FF08BD00BF7C82FF1FCC270000EC9CFF1F2DE9F84F0B9FB1F5805F04D30120FFF7DFFFBDE8F88F0546E5
:400900008A4690461E461C1D00D50334A410B8F1000F00D001354FEA85092C440F2C0ADD0F3CA400294B9B699C4201D9274B9C61C9F13C060F24EFF3108B012383F3108831
:40094000224BDB69002B3DD0A01C204AD2F86C360133C2F86C368000FFF702FE90B32403A4B24AEA040AA0F800A0184BB3F86C3604464380FFF7E4FC2146606008310023A6
:400980000DE0B8F1000F03D013B941F8238005E03A68101D3860126841F8232001339D42EFDC002305E003EB09020A98C05C885401339E42F7DCC9F13C039E4202DA4E442E
:4009C00000238B558BF31088BDE8F88F7C82FF1F0EB470B585B0099D0026334609E0252906D10134295D11B1252900D00136013301331C46E95C09B1332BF0DD0AAA039218
:400A000050B106F1910103AA01920095024689B23046FFF769FF09E006F1900103AA01920095024689B23046FFF75EFF05B0BDE8704003B0704700BF0CB430B585B0089CBD
:400A4000002300E00133E25C0AB1332BFADD04AA09AD42F8045D019200940022FFF744FF05B0BDE8304002B0704700BFF8B5B0F5805F03D30120FFF71FFFF8BD04460E460F
:400A8000EFF31085012383F310880E4BDB69ABB10C4AD2F86C360133C2F86C360C20FFF75FFD074650B144F480540480054BB3F86C364380FFF744FC7860BE6085F310884A
:400AC000F8BD00BF7C82FF1F2DE9F041B0F5805F04D30120FFF7F0FEBDE8F08104460F461646EFF31085012383F31088104BDB69CBB10F4AD2F86C360133C2F86C36102065
:400B0000FFF72EFD804670B144F400540480084BB3F86C364380FFF713FCC8F80400C8F80870C8F80C6085F31088BDE8F08100BF7C82FF1F2DE9F843B0F5805F04D301203F
:400B4000FFF7BAFEBDE8F8830446884617461E46EFF31085012383F31088114BDB69DBB10F4AD2F86C360133C2F86C361420FFF7F7FC814680B144F440540480084BB3F841
:400B80006C364380FFF7DCFBC9F80400C9F80880C9F80C70C9F8106085F31088BDE8F8837C82FF1F0EB4F0B582B0BDF81C70B7F5805F03D30120FFF77FFE2FE00446EFF331
:400BC0001086012383F31088174BDB6923B30230154AD2F86C360133C2F86C368000FFF7BFFC0546C0B123039BB21F4307800E4BB3F86C364380FFF7A3FB686008AB0193CF
:400C0000002307E0019A111D019111689A1C45F822100133A342F5DB86F3108802B0BDE8F04003B0704700BF7C82FF1F00B583B00A4B5B6813B90A4A084B5A60074B5A68AA
:400C400000230193012300934FF47A7302210420FFF7A8FF03B05DF804FB00BF7C82FF1F00A24A0438B504460D46032824D8DFE800F00209101E084600F07AFA104B1D5500
:400C8000002038BD084600F07FFA0D4B1D55002038BD084600F084FA094B1D55002038BD29462046FFF7DEFF0134E4B200E00024022CF5D9002038BD6FF0130038BD00BF44
:400CC0001889FF1F38B50024254609E00021094B19552046FFF7C6FF00B105460134E4B2022CF3D900F09EFB00F054FB00F00AFB284638BD1889FF1F10B5032838D8DFE865
:400D000000F002101E321C4B1B5C012B01D1002300E00123184A1354184600F029FA002010BD154B1B5C012B01D1002300E00123114A1354184600F027FA002010BD0E4BC4
:400D40001B5C012B01D1002300E001230A4A1354184600F025FA002010BD2046FFF7CCFF0134E4B200E00024022CF6D9002010BD6FF0130010BD00BF1889FF1FFEE700BF81
:400D8000F0B40022174611E050F82760F3B226F0FF0608E001EB420511F812406D78A5550132013BDBB2002BF4D101372B2FEBD9F0BC704738B500242E4B1C8058220233C1
:400DC0001A70082202331A8018232B4A13702C2102321180023213704D21023211800232137043F63F0102321180023213700622224B1A705222A3F580731A70204B1B78EF
:400E0000DBB2204A13704FF4E3621F4B1A8042F25122023B1A8019250CE01C4B1B7803F0010343EA440404F003044FF4F07001F0D7F9013D0DB1032CEFD115B90320FFF76D
:400E40009DFF134A4FF48073138007231370002310490B7048200231087013700532137002220D4B1A700D4A137843F01F03137038BD00BF804000408640004000430040BF
:400E80000F010049A14600402242004025420040044000400640004001400040A243004008B50A46002101F004FB08BDF8B5164B1B78DBB2154E3478E4B2154F3D78EDB249
:400EC00003F00701134A11701B090132137044F00303337045F003033B7003220E4B1A7040230E4A13700232137030220C4B1A70202203331A700A2001F08AF83D7034705C
:400F00004422084B1A70F8BDCF010049F8460040F94600406E5800400D51004001590040205B00407658004008B501F0B7FA08BD38B572B661223A4B1A70FFF73BFF00247D
:400F40000CE0384D630019194A0011462A44084691882858FFF7A4FF0134E4B2062CF0D900240BE02F49A3001819420088181022016BC06AFFF7D8FF0134E4B2002CF1D08C
:400F800029494FF09040FFF7FBFE04212748FFF787FF042226492748FFF7C6FF264A137843F0020313701032137843F002031370224C237843F040032370A2F58632513AC8
:400FC000137843F01003137008221D491D48FFF7ABFF0A221C491D48FFF7A6FF0A221C491C48FFF7A1FF08221B491C48FFF79CFF08221B491B48FFF797FF08221A491B48FC
:40100000FFF792FF1A4A137843F008031370FFF74DFF0E2221461748FFF786FF38BD00BF00480040F0270000B000004800760040600D00480876004003500140A04300409B
:40104000280D004802510040300D0048C05100403C0D0048F0510040480D004812510040500D004822510040580D00483251004022430040B043004008B501F0DBF90368AB
:401080000C2B00D1FEE7FEE708B5094B1A681044084BC31A802B02DC054B186005E001F0C9F90C2303604FF0FF32104608BD00BFE480FF1F10A0FF1F08B5104E104D16E0C4
:4010C00029686B68AC68002204E051F8040B43F8040B0432A242F8D1E868002203E0002143F8041B04328242F9D11035013E002EE6D101F0A5F9FFF717F8FEE70100000076
:40110000382A000008B5114A114B1A60114A136843F40073136000230AE0032B03D80E4A52F8231000E00D490D4A42F8231001332F2BF2D90B4B1A780B4B1A70084A0B4BBE
:401140001A60FFF7F5FE00F047FF08BD0004FA050CED00E014ED00E000000000791000000080FF1FBC760040C080FF1F08ED00E0044A137803F0BF03800100F040001843EE
:401180001070704700510040044A137803F0FE0300F0010018431070704700BF20510040044A137803F07F03C001C0B218431070704700BF005100407222074B1A70202292
:4011C000FC3B1A70062298331A70472210331A70002253331A7070478865004010B501F007F804460A4A137843F020031370FC3A137843F010031370FB32137843F0100326
:40120000137000F0DBFE204600F0F6FF10BD00BF9865004008B5054B1B7823B9FFF7CCFF0122024B1A70FFF7D9FF08BD1B89FF1F014B1878704700BF4B650040024B1878A3
:4012400000F07F00704700BF6C64004010B5FFF7F5FF0402FFF7ECFF204380B210BD00BF044B1B7813F0200F01D0012070470020704700BF6C640040034B1B7813F0040F68
:40128000FAD1024B187070476765004047650040024A137843F08003137070477B640040014B1880704700BF14680040014B1880704700BF94680040014B1880704700BFF3
:4012C0005468004008B50E4A137803F0C00343F0090313701F32137843F0010313700132137843F0010313704FF6FF70FFF7D8FF4FF6FF70FFF7DAFF0020FFF7DDFF08BD11
:401300007B64004008B5054B1B7823B9FFF7DAFF0122024B1A70FFF7BBFF08BD1D89FF1F024A137843F08003137070477F640040014B1880704700BF1C680040014B188024
:40134000704700BF9C680040014B1880704700BF5C68004008B50E4A137803F0C00343F0090313701F32137843F0010313700132137843F0010313704FF6FF70FFF7D8FFAE
:401380004FF6FF70FFF7DAFF0020FFF7DDFF08BD7F64004008B5054B1B7823B9FFF7DAFF0122024B1A70FFF7BBFF08BD1E89FF1F024A137843F08003137070477D64004069
:4013C000014B1880704700BF18680040014B1880704700BF98680040014B1880704700BF5868004008B50E4A137803F0C00343F0090313701F32137843F0010313700132FE
:40140000137843F0010313704FF6FF70FFF7D8FF4FF6FF70FFF7DAFF0020FFF7DDFF08BD7D64004008B5054B1B7823B9FFF7DAFF0122024B1A70FFF7BBFF08BD1F89FF1F0B
:4014400038B5EFF3108572B602284ED82D4B53F82030002B4BD02B4A013B42F820302A4B53F82030032B07D10222274B43F820200022264B43F8202000F054FC244B1B6895
:40148000002B36D1234B1C6800F02AFCB0F1FF3F31D0214B53F82020204B1B689A422CD9B4F1FF3F03D00221174A42F824101C4A52F820201343194A13600022124B43F8CE
:4014C000202000F0C9FB174B53F820304BB10024144B43F8204040F0004000F00BFE20460CE000F007FE002008E0032006E0042004E0002002E0002000E0002085F31088E6
:4015000038BD00BF1881FF1FB481FF1F3889FF1F0C9DFF1FA481FF1F902900004C89FF1F802900002089FF1F18B108B5C368984708BD704708B508B1406800E00020022894
:4015400016D80C4B53F8203093B10A4A013B42F82030094B53F82030032B07D10222064B43F820200022054B43F8202000F0DAFB08BD00BF1881FF1FB481FF1F3889FF1F29
:4015800018B1034640689B6801E00023184602281DD80F4A52F82020CAB10E4A52F82010032914D010B50C4C54F820201A4344F820200A4A52F82020134207D0012905D121
:4015C0000222044B43F8202000F0ACFB10BD704768290000B481FF1F3889FF1F2C89FF1F80B108B50378012B06D013B1032B06D008BDFFF79FFF08BDFFF7C2FF08BDFFF789
:4016000093FF08BD704700BF30B400EB40029300214AD258214B03EBC2035C68B4F1FF3F04D11E4B03EBC20250602DE01C4B03EB04139B6899420AD2184D05EBC202506042
:40164000174A02EB04125B1A93601DE01C46144B03EB04139A68891ADB68B3F1FF3F05D00F4A02EB031292689142EFD2B3F1FF3F05D00B4A02EB031295686D1A9560084A7A
:4016800002EB0414E0601C46054B03EB00108160C46030BC704700BF48290000EC80FF1FF49DFF1F38B5414A02EBC0035C6852F83030013342F8303000EB40018A003C4985
:4016C0008A58934203D90022384B43F83020B4F1FF3F6AD0374B03EB04139B68002B5FD1214600E01946334B03EB0113DB68B3F1FF3F05D02F4A02EB03129268002AF1D0A5
:401700002C4A02EB01114FF0FF32CA60274A02EBC0004360B3F1FF3F07D0264A02EB03139A68013A9A6000E02C4604EB44029300214A13441B7A03BB04EB440293001E4A17
:40174000134459681D4B53F8215005EB850293001B4AD35C53B905EB85029300184A13445A6801320A31AA20FFF7AEF905EB8505AB0013481844FFF733FF0E4B03EB0413C7
:40178000DD68596821B101392046FFF73DFF03E024010022074B1A51B5F1FF3FC4D138BD044A02EB0414013BA36038BDEC80FF1F5C290000F49DFF1F4829000058290000F3
:4017C0003429000038B5EFF3108572B6002838D1FFF768FF204B1B68002B34D11F4B1C6800F07EFAB0F1FF3F2FD01D4B53F820201C4B1B689A422AD9B4F1FF3F03D002218B
:40180000194A42F82410194A52F820201343154A13600022144B43F8202000F01DFA144B53F820304BB10024114B43F8204040F0004000F05FFC20460AE000F05BFC00203C
:4018400006E0032004E0002002E0002000E0002085F3108838BD00BF0C9DFF1FA481FF1F902900004C89FF1FB481FF1F802900002089FF1F70B50546EFF3108672B6114BB0
:401880001C680246611CCB20FFF71EF90E4B1B687BB9B4F1FF3F0ED00C4B53F8243063B10B4A52F8243023EA050542F82450002004E0022002E0022000E0012086F3108818
:4018C00070BD00BFA481FF1F0C9DFF1F682900003889FF1F10B502280FD80F4B53F820306BB10E4B53F82030032B0AD059B10C4B53F820300B60002406E0032404E00124FE
:4019000002E0072400E00E240A68411CCA20FFF7DBF8204610BD00BF68290000B481FF1F3889FF1F70B504460D46EFF3108672B63B4B1B682BB90A46411CC920FFF7C4F8BA
:4019400004E00A46411CD020FFF790F8022C54D8344B53F82430002B51D0334B53F82430032B4ED0314951F824202A4341F824202F4A52F82420154245D0012B45D1022271
:40198000294B43F82420204600F0CCF9244B1B68002B3CD1274B1C6800F0A2F9B0F1FF3F37D0254B53F82020244B1B689A4232D9B4F1FF3F03D002211B4A42F82410204A9E
:4019C00052F8202013431D4A13600022164B43F8202000F041F91B4B53F820304BB10024184B43F8204040F0004000F083FB204612E000F07FFB00200EE003200CE0012008
:401A00000AE0072008E0002006E0002004E0002002E0002000E0002086F3108870BD00BF0C9DFF1F68290000B481FF1F3889FF1F2C89FF1FA481FF1F902900004C89FF1F38
:401A4000802900002089FF1FF8B50546EFF3108672B63D4B1C680246611CCD20FFF734F83A4B1B68002B64D1B4F1FF3F63D0384B53F82430002B60D0364B53F824301D4204
:401A80005DD1354B43F824502F490B680120334A42F82300324A52F82370324D2A6822EA07022A60304A42F82300304A52F823300B6000F015F9B0F1FF3F05D02C4B53F80D
:401AC00020202B689A4214D81F4B1D68B5F1FF3F0AD00022214B43F82520254B53F82520691C3720FEF7F0FF45F0004000F002FB1AE00021194A42F82010194A52F8202099
:401B00001343184A136000F0A7F8174B53F8203043B10022144B43F8202040F0004000F0E9FA01E000F0E6FA00200B4B43F8240006E0022004E0022002E0012000E0002024
:401B400086F31088F8BD00BFA481FF1F0C9DFF1F682900003889FF1F2C89FF1FB481FF1F802900004C89FF1F2089FF1FA881FF1F9029000020B1034A12680260002070470C
:401B80000E207047A481FF1F38B500F065F804460E4B53F82030B3B100220C4B43F820200B4D296801313020FEF760FF2968094B53F8212001313720FEF786FF44F0004482
:401BC000054B1C6038BD044B186038BD2089FF1FA481FF1F90290000109DFF1F10B500F07FF8124B1B68B0F1FF3F1AD0104A52F82010104A1268914213D9B3F1FF3F03D0E9
:401C000002240D4941F8234000210B4B43F820100A4B53F820301A43064B1A60FFF7B4FF10BD43F00043064A136010BDA481FF1F902900004C89FF1FB481FF1F802900002B
:401C4000109DFF1F034B1B6813B10022014B1A60704700BF009DFF1FF0B4184B19880B0A174AD356B3F1FF3F01D1535601E008335BB2144D55F82320134850F82200134E07
:401C800056F8224045F82340114D2F6846F822702A60B4F1FF3F09D10E4A42F82340012202FA03F321EA0301044B19800A4B19680A4A42F820101860F0BC70474889FF1F69
:401CC000282800006481FF1FDC9DFF1F0081FF1F4489FF1F2481FF1FA481FF1FA881FF1F0C4B1A88130A0C49CB56B3F1FF3F01D18B5601E008335BB2B3F1FF3F06D0074AD0
:401D000052F82320064B53F8220070474FF0FF30704700BF4889FF1F282800006481FF1FDC9DFF1F30B4144B53F82020134C2368134951F823502560124C44F823004FF093
:401D4000FF3441F82340104951F82210A1420AD10E4951F820400E480188214301800D4941F8223002E0064840F82130064941F8223030BC704700BF0C81FF1F4489FF1FD2
:401D80000081FF1FDC9DFF1F2481FF1F902900004889FF1F6481FF1F10B150F8210070474FF0FF30704700BF0122014B1A60FEE7089DFF1FF8B500241AE0651C1B4F57F824
:401DC00024102846FEF750FB194B53F8246031462846FEF78FFB2B4657F8242003210120FEF72AFE324629461020FEF76DFE2C46022CE2DD002416E00E4B53F824500A35BD
:401E00000D4E56F824102846FEF72EFB2B4656F8242003210120FEF70FFE552229461420FEF752FE0134002CE6D0F8BDC481FF1F9029000054290000E880FF1F70B5054635
:401E4000124B53F8306000241CE0104B03EBC50321465868FFF7A0FF0D4A52F82030013B42F820300B4B53F82030032B07D10222084B43F820200022074B43F82020FFF7B8
:401E800051FF0134B442E0D370BD00BF282900001881FF1FB481FF1F3889FF1F18B908B5FFF7CCFF08BD70471A4B1B4ADA621B4A9A631B4ADA63EFF3108272B6194B1B6876
:401EC00023BB10B5044600F055F8174B1C600122144B1A60FFF76EFF2046FFF7DFFFFFF7FFFEB0F1FF3F0ED0104B53F82030104A11680B43136000220E4B43F82020FFF71B
:401F0000ABFE00F0F7F862B6FFF74EFF82F31088072070470080FF1FB52000007920000091000000089DFF1F049EFF1F802900004C89FF1FB481FF1F08B5EFF3108272B66B
:401F4000094B1968094B1B6833B94FF0FF30084B43F82100002000E0022010B9084600F022F982F3108808BDA481FF1F0C9DFF1FF480FF1F38B50D4B1D68EFF3108472B692
:401F800000F068F80A4A136843F07F431360094B6B650121052000F045F8074A136843F02003136084F3108838BD00BF08ED00E020ED00E01102000000E100E0054A13783A
:401FC00043F0080313701032137843F008031370704700BFA24300400B4A7F2313708021517007E0DA0002F1804202F5F042013BDBB21370002BF5D1DB0003F1804303F5B5
:40200000F04300221A707047DC81FF1F01BE704708B5034B1B7A00FB03F000F0E1F808BDE481FF1F38B504460D46072902D90020FFF7ECFF1F2C02D90020FFF7E7FF04F0CE
:402040001F0000F1604000F564406D01EDB2057038BD00BF18484FF47F0102680A43026016486FF07F4102680A400260704714484FF080510160704772B611484FF00061B6
:402080000160FFF7ABFD0F48006800F0E5F858B10C4800684FF080730B4A0C490FB40FB46FF00600004700BF6FF0060062B6004762B600DF08B0704720ED00E01CED00E003
:4020C00004ED00E0109DFF1FF5200000B1200000EFF30880054908600548006880F3088870470248006880F308887047F481FF1FD081FF1F411C8900154A11440968154AF7
:40210000136899421AD0F0B444464D4656465F46F0B400B5104C9B002344EFF308851D60116089002144096881F3088802BC8E46F0BCA046A946B246BB46F0BC002806DB25
:4021400000B500F07DF802BC8E46FFF7D3BF7047B42900005089FF1FD481FF1FF0B444464D4656465F46F0B400B5EFF3038308B48000174901440968164A0244EFF3088305
:40218000136088471448804704BC4FF08070024382F3038801BC8646F0BCA046A946B246BB46F0BC704780000A4901440A6882F3088804BC4FF08070024382F3038808BC99
:4021C0009E46F0BCA046A946B246BB46F0BC70479C290000E89DFF1F01220000000000000230800803D000BF01380046FCD17047EFF3108072B6704780F31088704700BF72
:4022000008B572B6014B1868FFF7CDFFA481FF1F10B5094C216801313020FEF727FC2168064B53F8212001313720FEF74DFC2068FFF794FF10BD00BFA481FF1F90290000E5
:4022400008B562B6FFF7E4FF72B600F053F8014B186808BD109DFF1F00280BDA20F000400130054B53F82000044B1B68181A18BF0120704701207047B42900005089FF1F49
:40228000054B53F82020054B53F820309A4201D101207047002070471881FF1F7429000038B5FFF7D9FC04460E4B53F82030B3B100220C4B43F820200B4D296801313020EE
:4022C000FEF7D4FB2968094B53F8212001313720FEF7FAFB44F00044054B1C6038BD044B186038BD2089FF1FA481FF1F90290000109DFF1F38B5444B1C680022434B1A6089
:40230000434A52F82430013342F82430414B53F824502046FFF7B4FF012801D0A54204D103223D4B43F8242003E002223A4B43F824203A4B53F82410394A136823EA010356
:402340001360384B53F824402F4B1C60B5F1FF3F0FD0314B53F82530032B07D102222E4B43F825200022304B43F825202846FFF7D9FCFFF7B5FCB0F1FF3F19D1B4F1FF3F17
:4023800011D00022244B43F824201F4D296801313020FEF76BFB2968244B53F8212001313720FEF791FB44F00044214B1C6038BD1E4B53F820201A4B1B689A4216D800229F
:4023C000154B43F82420104D296801313020FEF74DFB2968154B53F8212001313720FEF773FB44F00044124B1C6038BD00210A4A42F82010094A52F820201343084A1360CB
:40240000FFF74EFF38BD00BFA481FF1F009DFF1F1881FF1FF480FF1FB481FF1F802900004C89FF1FA881FF1F3889FF1F90290000109DFF1F014B1868704700BF5882FF1F8B
:402440000E4B70B51E460E4C0025E41AA410A54204D056F8253098470135F8E700F0DAFA084B094C1E46E41AA4100025A54204D056F8253098470135F8E770BD202A000087
:40248000202A0000202A0000282A0000024B0146186800F017B800BF5882FF1F10B5431E0A44914204D011F8014B03F8014FF8E710BD03460244934202D003F8011BFAE717
:4024C0007047000070B5CD1C25F0030508350C2D38BF0C25002D064601DBA94202D90C23336046E000F05CF8234B1C681A462146A1B10B685B1B0ED40B2B03D90B60CC18DE
:40250000CD501EE08C420BBF63684B681360636018BF0C4615E00C464968E9E7174C23681BB9304600F02CF820602946304600F027F8431C18D0C41C24F00304A0420DD181
:402540002560304600F02DF804F10B00231D20F00700C31A0ED05A42E25070BD211A304600F00EF80130EBD10C233360304600F018F8002070BD00BF5889FF1F5489FF1F6C
:4025800038B5064C0023054608462360FEF77CFD431C02D1236803B12B6038BD08A0FF1F704770470000000045786365656465642053594D424F4C5F5441424C455F534C38
:4025C0004F54532028736565207854726163654765744C6173744572726F72290000000045786365656465642053594D424F4C5F4D41585F4C454E475448202873656520DA
:402600007854726163654765744C6173744572726F7229004578636565646564204F424A4543545F444154415F534C4F54532028736565207854726163654765744C6173A5
:40264000744572726F722900537472696E6720746F6F206C6F6E672028736565207854726163654765744C6173744572726F7229000000005452435F53545245414D5F5044
:402680004F52545F524541445F444154412072657475726E6564206572726F722028213D2030292E000000005452435F53545245414D5F504F52545F57524954455F44418B
:4026C00054412072657475726E6564206572726F722028213D2030292E000000496E76616C6964206576656E7420636F64652028736565207854726163654765744C617315
:40270000744572726F722900457863656564656420495352206E657374696E672028736565207854726163654765744C6173744572726F7229000000445754206E6F742042
:40274000737570706F727465642028736565207854726163654765744C6173744572726F722900004457545F435943434E54206E6F7420737570706F7274656420287365D7
:4027800065207854726163654765744C6173744572726F7229000000436F756C64206E6F742063726561746520547A4374726C2028736565207854726163654765744C61EE
:4027C00073744572726F7229000000005265636F726465722073746F7070656420696E2070727654726163654572726F72282900004F00400C0040510040300000000140D4
:40280000001000140140000800400140000A004C01400002105001401000000000500140180D004810000000FF000101020202020303030303030303040404040404040411
:402840000404040404040404050505050505050505050505050505050505050505050505050505050505050506060606060606060606060606060606060606060606060608
:402880000606060606060606060606060606060606060606060606060606060606060606060606060606060607070707070707070707070707070707070707070707070780
:4028C0000707070707070707070707070707070707070707070707070707070707070707070707070707070707070707070707070707070707070707070707070707070718
:402900000707070707070707070707070707070707070707070707070707070707070707070707070707070701000000302900000000000000000000020000000000000023
:4029400000000000FFFFFFFF00000000000000000000000000000000000000001027000001000000010000000000000000000000010000000100000001000000010000001E
:4029800080000000010000000800000001000000010000000100000008000000510100008D0100009101000011220000112200001122000000000000000000000000000078
:4029C00001000000616C726D5F53616D706C65416C61726D0000000065765F656E644F66537472696E67000074736B5F696E69740000000074736B5F6261636B67726F757B
:402A00006E64000074736B5F6A736F6E0000000043000000F8B500BFF8BC08BC9E4670474D00000005110000F8B500BFF8BC08BC9E46704729000000482A0000C880FF1FB4
:402A400098010000B01D00000000000088130000FF00FFFF01000000FFFFFFFF88130000FF00000010A0FF1FC429000000000000FFFFFFFFFFFFFFFFFFFFFFFFFFFFFFFF16
:402A80000100000002000000FFFFFFFF000000000000000003000000010000000100000001000000FFFFFFFFFFFFFFFFFFFFFFFFFFFFFFFFFFFFFFFFFFFFFFFFFFFFFFFF2D
:402AC000FFFFFFFFFFFFFFFFFFFFFFFFFFFFFFFFFFFFFFFFFFFFFFFFFFFFFFFFFFFFFFFFFFFFFFFFFFFFFFFFFFFFFFFFFFFFFFFFFFFFFFFFFFFFFFFFFFFFFFFFFFFFFFFF16
:402B0000FFFFFFFFFFFFFFFFFFFFFFFFFFFFFFFFFFFFFFFFFFFFFFFFFFFFFFFFFFFFFFFFFFFFFFFFFFFFFFFFFFFFFFFFFFFFFFFFFFFFFFFF030000000300000003000000C0
:402B4000D8290000E8290000F4290000042A000008A0FF1F00000000B49DFF1F7F800000030000000000A08C401901004800000000A24A0400000000000000000000000003
:402B8000000000000000000000000000000000000000000000000000102A0000000000000000000000000000000000000000000000000000000000000000000000000000DB
:402BC000000000000000000000000000000000000000000000000000F881FF1F0000000000000000000000000000000000000000000000000000000000000000000000003E
:402C00000000000000000000000000000000000000000000000000000000000000000000000000000000000000000000000000000000000000000000000000000000000094
:402C40000000000000000000000000000000000000000000000000000000000000000000000000000000000000000000000000000000000000000000000000000000000054
:402C80000000000000000000000000000000000000000000000000000000000000000000000000000000000000000000000000000000000000000000000000000000000014
:402CC00000000000000000000000000000000000000000000000000000000000000000000000000000000000000000000000000000000000000000000000000000000000D4
:020000040003F7
:0200000480007A
:4000000001450040024F004009520040015B004003640040026500401A000140340101402E0201404303014029040140470501401E060140320701403B080140470901406C
:400040005B0A0140430B01404B0C0140390D0140390E0140350F0140301401404315014031160140411701403E18014041190140431A01404F1B01400F400140154101403E
:400080001142014007430140044401400C450140074601400D4701400748014004490140174C01400F4D014006500140035101407E0201400A4B000301010896093310381B
:4000C0001118608061A47C4027848301880F8C38870F88720001060808040E1014021A011B021E021F0122042B042C0831023301341F370438203E10580459045C225F019A
:40010000D804D904DC22DF01007201040240032004100780084109080A050C010D080F8010081101138C1648170818081B10200221092248238029102A082BD02C082F8064
:4001400030403108332036883780381039023A403B043C2A4C0C850888148C048F80C05FC23FC47FCAA7CC5ECEEFE002E208E60400010801090110011101140115011A015E
:400180001D0120012101250126012B0133013401580459045C225F0180108220844086808A048C049201960298019C02A208A408A820AA10AC80AE40B0FFBE01D602D73D9D
:4001C000D804D904DB0CDC20DD20DF0100A8010A0201038405020704080109080AA50B200C010D080F04100A110412801302170A18401F202720284129082F9431083380F0
:4002000034413680370838083B1C3F105A106101684A69057110720579408320840887018B028E01900892809440950596059D109F08A108A280A414A780B380C05FC27FBA
:40024000C43FCAEBCCDACE26D604D801DE08E010E6820E021301200123022801300133023501360238023E0152035302580459045B045C225D205F018004840494019B0101
:400280009C04A004A501AA03AF02B004B202B303B401B802BE01D401D80CD904DB0CDC92DD20DF010008038106400720081009080A800B400E2210011110128013041502C9
:4002C000171019011BC01E201F22202821182318271028012A812F2130123108321033803710380839203B40468047025C4069506A107D40804083209008910292A093048F
:400300009540961097109A419B039D019F08A002A201A414A782AB20AE40B101B640C03DC2AEC45FCA59CC2FCE0ED610DE10E208E8205608580459045B045C225D905F01C5
:400340008A088C038E0C9403960497019C0A9D019E04A003A204A301A701AA05AD01B00FB701BA02BF40D804D904DC23DF01020803020628070308040A020C100FC0128477
:400380001480152117101B02224029102A042B822E08300C3280331134903510370A380839013A083B503E203F905D806702900891209310970298109B0A9F20A340B680A3
:4003C000C0E3C255C45ACA4FCCFFCE3FD610D810EE045602572458045B045C025F01818485078738890A8B108D048F80950199849D04A184A560A980AB04AD56AF09B10840
:40040000B37FB580B780B908BF51C034C102C260C5DEC6F0C7CBC83BC9FFCAFFCBFFCC22CEF0CF08D004D409D904DA04DB04DF01E2C0E440E501E610E711E8C0E901EB1155
:40044000EC40ED01EE40EF010520061007400C010D200E0414122008220C23822A042B8A302031803204381439403A024014430248044906500352245301582059045B8237
:400480006302670468506A806B046C206D526F8872197340748076027A027B01821086088840930494149554960497029B409C109D82A202A302A4A0A541A621C070C25012
:4004C000C4A0CA0FCC0ECE0FD007D204D60FD828E009EA40EE04028004110507062207180862090B0A140B140C420E08108D1402160D19041B1A1C40208D248D288D2C0D98
:400500002D132E802F0C30703101320F3480351E39083A0A3B203E103F054050410249FF4AFF4BFF4DA04F0450185440580459045A045B045D015F01604062C064406540DD
:4005400066C068C06AC06CC06EC082019201AE02B401B602C050C103C621C80CC9FFCAFFCBFFCDAFCE0FCF04D018D280D804D904DA04DB04DC21DD11DF01E040E2C0E440FF
:40058000E540E6C0E8C0EAC0ECC0EEC00014010202800302064009010A100B020F4010A0115017801A101B121C081F402020221223042B022C102D01321034203504364067
:4005C00038143C403E04432046104BC04F405650572062A06320778084149040910194149504982099049B409D80A240A540A601A702B140B304B440B514B740C01FC21D4C
:40060000C48FCAC8CC74CE56D044D218D80EE402E8100E01260130013E014060410249FF4AFF4BFF4DA04F04501854185604580459045A045B045C225D315F01604062C039
:400640006440654066C068C06AC06CC06EC0850D871089148B2B92019A029B029D38A602AD10AF27B002B401B503B73CB980C020C106C501C702C811C9FFCAFFCBFFCDAFD6
:40068000CE0FCF04D018D280D804D904DA04DB04DC01DD11DF01E040E2C0E440E540E6C0E8C0EAC0ECC0EEC0058406080A440D100EA810201402154519021A041B101F01F6
:4006C00021A02B022D012F2031A035103614374038143D403E084204460448204A084F20520C5E02674672408120850287409040912198229A089D04A240A320B010B3014C
:40070000C0E0C27AC4B4CAC8CC7CCE56D024D224D680D8B0E004E408EC204020410149FF4AFF4BFF4DA04F045018580459045A045C225D015F01604062C06440654066C01A
:4007400068C06AC06CC06EC086029A02AE01B202B401C020C105C501C602C805C9FFCAFFCBFFCDAFCE0FCF04D018D280D804D904DA04DB04DC21DD11DF01E040E2C0E440A8
:40078000E540E6C0E8C0EAC0ECC0EEC00040010103010404082009800A0C0F0810101280134017801C241D20281029062D042E083180320433013422350436C039053C4055
:4007C0003D014004438045204F8857C077808510860489058B408C028D828E808F20C029C243C48DCA43CCFBCE93D02CD210E070E208E480E6040509071009140A020C065E
:40080000111C1322140115401B031C041D2C1F11200629102D302F0C30063360351F3601380239083E414004470449FF4A074BFF4C404D204EF04F055008580459045A0484
:400840005C325D035F01604061A862406320D804D904DC22DF01002801010204030606280702081009010A220C100F80128113181480170818401980210422182B0A2C102A
:400880002E20329133043480370A382039083C883E083F80404048105108530879017B40808081818440860888108B1090209202931098109A299B0A9C809E049F04A280D7
:4008C000A342A508A608C0EFC25FC43FCA6CCCDFCE56D001E006E402E601EC20580459045C225F018002820C83058A189001961097069C189E069F03A002A106A21CA30106
:40090000A701AA06AB02B201B61EB707BA80BB80BE04C043C101C6BEC70CC81CC9FFCAFFCBFFCEF0CF44D00CD401D804D904DA04DB04DC33DD33DF01E6C0EA40EB02010125
:40094000020806290702080909080A020B800C100F8012841480170819041A021B802180228028082A042B802C102E20318032083480370A39033E083F8041814306480862
:40098000492050185340580159245A808B028F0892809310960298109A289B0A9C809E04A342A408A688A780B180B720C0EAC25DC43ACA67CCDACE51D00BD60FEC90EE020E
:4009C0000302047805010603084F09010A300C2011011208160618781A051C081E80207F241027022830308032403301343E3601370238803A203E043F405602571158046C
:400A000059045B045C335D305F01819A8513876489028B988D988F029102952197D899989B029D389FC0A19AADFCAF03B30FB513B7E0BB88D804D904DC02DF010008012028
:400A4000021003400554080209200D080E480F011011172A1E6920142180220425482B822F203022318032043701380439503A023E155E206E146F017540772888028B40EF
:400A80008D2091509280941495049A029B409C139DA09E10A032A382A5E0A601A821AA08AE01B340B704C0EEC2FAC475CA49CC8FCEEFD620E020E440E808EC01EE02580438
:400AC00059045C225F018078811483498466851F86998828891F8C0490F9910192069326950A96F9975198079AF89C50A0FFA402A806B007B107B286B360B466B518B618CC
:400B0000BA28BB80BF04C063C104C205C402C50CC6E0C809C9FFCAFFCBFFCC62CDA0CEF0CF41D00CD608D804D904DA04DB04DC33DD93DF01E640E702E910EA30EB10ED10AB
:400B4000EE10EF1200280120034005450704082009600D080E080F8110101340172A1D141E021F012602271628202D802F013011334035013602370439083B603E143F01CF
:400B80004508471249104B104D844F1057205C8067017A807B4081108280834084118540881489048B108C80921493409504970199409B689C119DB49F02A128A204A4047F
:400BC000A601A720B010B640C0FEC2F3C475CA02CCCDCEEED0E0D230D610D810E024E480EC201101168030023210350836403B823E8081088402C430CCF0CE70E210E620D1
:400C000005200B400D04322057805F80838086208B408D20910196209782A640C080C230CC10D440D620E280E64053085A0182108601910196209702A640AB80AD04B340BE
:400C4000D420D640E210E620E810EE201B089101A640A708AB01C610EE20722083018710DC0156025C02640482208602971298049E20B004D605D801EC011B04244084025F
:400C800097129C02C608C8010B420F104401830186208A109712AB04B440C20ED004E404EA0225029F04AE40B101B704C880EE4003049F04B102C040521056405B405F2211
:400CC0006010630164049010930198049A309B229C01A810AC04AF40B302B720D407D607D803E804EC0812207220740280028E209A20B001B240B740C408DC01DE04E2083B
:400D0000E808EC05100D110112141A0C1C0D1D0100AB010F100A00000F0114000000000004000C0107000F0038C0C00000030300800040BCBC00B400000000004000000006
:400D400000000000C000000000FFFF00FF0000000039390038000000043838000800000000010000000000000000000000000000000000000000000000000000000000008F
:400D80000000000000000000000000000000000000000000000000000000000000000000000000000000000000000000000000000000000000000000000000000000000033
:400DC00000000000000000000000000000000000000000000000000000000000000000000000000000000000000000000000000000000000000000000000000000000000F3
:400E000000000000000000000000000000000000000000000000000000000000000000000000000000000000000000000000000000000000000000000000000000000000B2
:400E40000000000000000000000000000000000000000000000000000000000000000000000000000000000000000000000000000000000000000000000000000000000072
:0200000490006A
:0400000000004007B5
:0200000490105A
:04000000BC90ACAF55
:0200000490303A
:020000007C5C26
:0200000490402A
:4000000000000000000000000000000000000000000000000000000000000000000000000000000000000000000000000000000000000000000000000000000000000000C0
:400040000000000000000000000000000000000000000000000000000000000000000000000000000000000000000000000000000000000000000000000000000000000080
:400080000000000000000000000000000000000000000000000000000000000000000000000000000000000000000000000000000000000000000000000000000000000040
:4000C0000000000000000000000000000000000000000000000000000000000000000000000000000000000000000000000000000000000000000000000000000000000000
:0200000490501A
:0C00000000012E16106900012E2A8CC58C
:00000001FF