:400000000080002011000000D5030000D503000008B5044B1A6803F53F5302331A6000F0E1F900BFFA46004010B5054C237833B9044B13B10448AFF300800123237010BDED
:400040004881FF1F0000000020060000084B10B51BB108490848AFF300800848036803B910BD074B002BFBD0BDE81040184700BF000000004C81FF1F20060000C880FF1FB6
:4000800000000000064B1B7813F0FF0F03D10122034B1A7070470022014B1A70704700BF6481FF1F08B562B60D4800F059FA0D4B1B7813F0FF0F09D0012000F007FA0020E0
:4000C00000F0F8F9012000F0E9F9F0E7002000F0FDF9012000F0EEF9002000F0DFF9E6E7850000006481FF1FFEE700BFF0B40022174611E050F82760F3B226F0FF0608E0EB
:4001000001EB420511F812406D78A5550132013BDBB2002BF4D101372B2FEBD9F0BC704738B500242E4B1C80582202331A70082202331A8018232B4A13702C210232118010
:40014000023213704D21023211800232137043F63F0102321180023213700622224B1A705222A3F580731A70204B1B78DBB2204A13704FF4E3621F4B1A8042F25122023B59
:400180001A8019250CE01C4B1B7803F0010343EA440404F003044FF4F07000F0F1F9013D0DB1032CEFD115B90320FFF79DFF134A4FF48073138007231370002310490B7065
:4001C00048200231087013700532137002220D4B1A700D4A137843F01F03137038BD00BF8040004086400040004300400F010049A146004022420040254200400440004063
:400200000640004001400040A243004008B50A46002100F0FCF908BDF8B5164B1B78DBB2154E3478E4B2154F3D78EDB203F00701134A11701B090132137044F0030333709F
:4002400045F003033B7003220E4B1A7040230E4A13700232137030220C4B1A70202203331A700A2000F058F93D7034704422084B1A70F8BDCF010049F8460040F94600409C
:400280006E5800400D51004001590040205B00407658004008B500F0AFF908BD38B572B66122384B1A70FFF73BFF00240CE0364D630019194A0011462A440846918828582A
:4002C000FFF7A4FF0134E4B2082CF0D900240CE02D48A20011194B000344B3F84020D96B986BFFF7D7FF0134E4B2012CF0D927494FF09040FFF7FAFE04212548FFF786FF61
:40030000042224492448FFF7C5FF244A137843F0020313701032137843F002031370204C237843F040032370A2F58632513A137843F01003137008221A491B48FFF7AAFFFB
:400340000A221A491A48FFF7A5FF082219491A48FFF7A0FF082219491948FFF79BFF082218491948FFF796FF184A137843F008031370FFF751FF0E2221461548FFF78AFF14
:4003800038BD00BF0048004024060000B000004800760040E80C00480876004003500140A0430040BC0C004802510040C40C0048C0510040D00C004812510040D80C004879
:4003C00022510040E00C00483251004022430040B043004008B500F0E3F803680C2B00D1FEE7FEE708B5104E104D16E029686B68AC68002204E051F8040B43F8040B0432F2
:40040000A242F8D1E868002203E0002143F8041B04328242F9D11035013E002EE6D100F0C5F8FFF73FFEFEE7010000009806000008B5114A114B1A60114A136843F4007340
:40044000136000230AE0032B03D80E4A52F8231000E00D490D4A42F8231001332F2BF2D90B4B1A780B4B1A70084A0B4B1A60FFF715FF00F037F808BD0004FA050CED00E017
:4004800014ED00E000000000D50300000080FF1FBC760040C080FF1F08ED00E0044A137803F0BF03800100F0400018431070704700510040044A137803F0FE0300F0010020
:4004C00018431070704700BF20510040044A137803F07F03C001C0B218431070704700BF005100400B4A7F2313708021517007E0DA0002F1804202F5F042013BDBB21370D0
:40050000002BF5D1DB0003F1804303F5F04300221A707047CC80FF1F08B5034B1B7A00FB03F000F02DF808BDD480FF1F014B1B681865704708ED00E04001C0B2014B187007
:40054000704700BF04E400E01022014B1A60704700E100E01022014B1A60704780E100E010B50446FFF7F6FF2046FFF7DFFF0720FFF7E2FFFFF7E8FF10BD00BF0000000042
:400580000230800803D000BF01380046FCD17047EFF3108072B6704780F31088704700BF014B1868704700BF4481FF1F0E4B70B51E460E4C0025E41AA410A54204D056F8D9
:4005C000253098470135F8E700F054F8084B094C1E46E41AA4100025A54204D056F8253098470135F8E770BD8006000080060000800600008806000010B5431E0A449142AD
:4006000004D011F8014B03F8014FF8E710BD03460244934202D003F8011BFAE77047000000000000004F00400C00405100403000F0510040100000000140001000140140E2
:40064000800200170140000500400140000A004C014000021050014010000000801601402C0C0048800000500140AC0C0048100043000000F8B500BFF8BC08BC9E46704796
:400680004D00000031040000F8B500BFF8BC08BC9E46704729000000A8060000C880FF1F8000000020000000000000007F800000030000000000A08C40190100480000008C
:4006C00000A24A0400000000000000000000000000000000000000000000000000000000000000007006000000000000000000000000000000000000000000000000000094
:40070000000000000000000000000000000000000000000000000000000000000000000000000000E480FF1F00000000000000000000000000000000000000000000000037
:400740000000000000000000000000000000000000000000000000000000000000000000000000000000000000000000000000000000000000000000000000000000000079
:400780000000000000000000000000000000000000000000000000000000000000000000000000000000000000000000000000000000000000000000000000000000000039
:4007C00000000000000000000000000000000000000000000000000000000000000000000000000000000000000000000000000000000000000000000000000000000000F9
:4008000000000000000000000000000000000000000000000000000000000000000000000000000000000000000000000000000000000000000000000000000000000000B8
:020000040003F7
:0200000480007A
:4000000001450040024F004008520040015B004003640040026500402800014029010140140201403B0301402604014046050140490601404B0701403E0801403D09014053
:40004000160A0140360B01401C0C0140410D01402E0E0140270F01403E140140411501401216014048170140491801404A190140661A0140401B01400840014007410140C9
:400080000A42014009430140024401400E4501400E4601400D4701400448014004490140134C0140114D01400650014002510140050101400A4B00010101089A09391020A9
:4000C0001110608061A427848401870F890F84728538001002200420061009020A020C800D080E4012081302150416041A011B081C041F0420022401271028082B012C404E
:400100002D012E8032FF351F39203E043F10580459045C205F018F01B101D804D904DC22DF01001A0140038804140540084009080A060B400D080E0612131326150319084F
:4001400020042603274029082A902B802D012E042F08304031083315374438143A013B403C063D4047338B80C0EFC2EFC41FCAEFCC5FCEDF580459045C225F018602930165
:400180009A049B02A201B102B201B301B404B602D440D804D904DB04DC22DF010008038805440640074008400B640C800D080E040F40120A130219441A141B882109220878
:4001C000234029402B082CC02E042F1830803108320133103540360A39023A403B203F40601062908A029542960697449B509D409F22A080A202A404A508A788AE84B340C6
:40020000B484C0BEC2FFC40BCAECCCDFCE1DD80EE8020240040206340C110E02100D12401402163818021A0D1E20204D244D2501284D29012C4D31013240340F36303902B7
:400240003A203E043F015602573E580459045B0F5C205D205F01D804D904DC22DF01000401020280030204200540070809080A890C480E100F4010A011101380160917405D
:4002800018101A092102280829442A812C402E803048374838203A083B403E1C3F4059046102680469406A026B2073067901810485018A019214934094109540960297040F
:4002C000984099409B409E109F22A404A680AD08C0CDC2BFC4CFCA9FCC5ACE7ED602D801DE01E208E601E802EE020505070A1D021F0D29092B062D032F0C370F3B80560836
:40030000580459045B045C025D905F01850A871089018D8491849556970999849D049F80A160A580A704A904AD07AF38B102B37FB580B780B908BF51C023C104C260C5DE14
:40034000C6FBC7C0C82FC9FFCAFFCBFFCC22CEF0CF08D004D602D720D804D904DA04DB04DC02DF01E2C0E440E501E610E711E8C0E901EB11EC40ED01EE40EF0101840202A0
:400380000340058007480A140B400E140F40130814201504200821012312268028102B862F0A302031083241368038843B103C044004410843024804490652115380581099
:4003C0005A205C80628066C06702682069106AA26B8170C0780279028284830884A0921493409404951096809B409D029E109F88A4A0A508A702B408C0DDC27EC424CA3F24
:40040000CC1FCE4ED007D204D610D818E204E60AEE86070217022F01350137024030410549FF4AFF4BFF4DA04F0450185280580459045A045B045C125D115F01604062C0A8
:400440006440654066C068C06AC06CC06EC08001B201BE04C020C105C501C720C821C9FFCAFFCBFFCDAFCE0FCF04D018D401D804D904DA04DB04DC22DD31DF01E040E2C0C7
:40048000E440E540E6C0E8C0EAC0ECC0EEC00122020105200629092A0D3A10401250144019042405270828402A382C042D202E80310A3308370839203A013F04400447081E
:4004C00048024B044E025002520259155A80768081208210844091209210984099209A019B029E30A102A302A708AE01B308C0EBC27EC41CCA17CC43CE45D044D218D60F3C
:40050000E001E602EA40EE840101090113011501210129012F01310139203F10580459045C225F01D203D302D804D904DB04DC22DD20DF0101A005A00620080809020B087C
:400540000E041040121014401520170422012308284429802A202C402D802E042F0C3102330C3408352039223E20400841106C066F0280158402902291229214984099A0B1
:400580009A019B029C0C9E20A102AD10AE40AF01C0E3C24EC47CCAFDCC63CE25E004E484580459045C225F01C020C103C9FFCAFFCBFFCDA0CF04D018D804D904DA04DB0443
:4005C000DC22DD01DF01E040E2C0E440E540E6C0E8C0EAC0ECC0EEC001A0020105A00610084809020C440E040F02100412101701280829802A022C042D80300431023408E2
:40060000352039023A103B103E063F124004410469806A126B107015730281408310860189028A048C049004910A960499A09A109E209F01A240A301A908AC20AE10B1217C
:40064000B310B580C0E3C2EDC416CA3DCC63CEE5D006E005E422E821EC4007020B021301330235014020410346104702481849FF4AFF4BFF4DAF4E0F4F0450185280580422
:4006800059045A045B045C125D115F01604062C06440654066C068C06AC06CC06EC0810185018901910199019F01A501B701D804D904DC22DF0100100180021005A0062046
:4006C0000A040B200E0611101202151016102004210826402C20300235A03603370138243C103E243F024004410450105104700289108B01C0E7C2C6C463CA40CCB1CEE605
:40070000D006E080012002B304FF0506084209100CF30E0C0F31104C113012A3140C150E1771184F19021A901D041E4020082179230624042801297F2C032D0F2F70300FEE
:400740003108328C33303507367C374039803AAA3F0156025713580459045B045C335D305F0182048E019601A202A602B002B201B604BE05D418D804DB04DC03DD30DF013A
:400780000046020406400702080109080A090E2010801110134415021708184419651E411F0421102201232A28012961308031163204380839103A103B8242C05A025F01DA
:4007C000668067086A806B147084711873048321910293C29440952096809A549D209F14A001A102A210A820A940B310C09FC22FC43FCA0DCC0FCE0FD681D830E810EA0829
:40080000EC2004AE06510C190EA2142416C818702C0432073478368038203A083E40580459045C205F0100040102030904840A220D080E0810A011501201150816111884C2
:4008400019021A201B061D481E081F0820012106222023402D042E203240331435013602374839083B423E143F2040414110480149204A114B805101582059445B026002FF
:40088000810182218A248F109114921693129404980299049A459B4BA0A0A508A602A70EC0AFC265C48FCA60CCDECE6BD00DD20CD60FD808E204120115011E022303280102
:4008C00030033301350236034004450449FF4A074BFF4C404D204EF04F05500854015804590C5A045B0C5C295D235F01604061A862406320830184038604900A9204940364
:40090000960C99019A089F01A003A204A501AE05AF01B20FB701BA08BF40C031C102C5E0C60CC70BC816C9FFCAFFCBFFCEF0CF44D00CD608D804D904DA04DB04DC23DD9307
:40094000DF01E6C0EA40EB02031008010A180E800F0210021280172019041A101E801F802240250426082728280129042A212B082F803004310232803310370839203A42A3
:400980003B0442124310470149034D04500452805402560258805D8063027F028201880489088B048F089120968098049A419B029D039E20A102A302A508A680B401B51069
:4009C000B680C004C29EC449CA8FCC4FCE0FD08ED618D808DE10E010E420E680001004010514060E100C1203152C160C171119091B101F03214022032510260828012930F3
:400A00002A062B0C2D1C2F22300F33603410371F39083A023E104030410149FF4AFF4BFF4DA04F045018580459045A045C335D015F01604062C06440654066C068C06AC062
:400A40006CC06EC08301860287028B058E049008940C97039A029B06A201A80CAD06AF01B00CB201B307B402B802BB08BE01C030C104C501C602C805C9FFCAFFCBFFCDAF9A
:400A8000CE0FCF04D018D280D804D904DA04DB04DC31DD11DF01E040E2C0E440E540E6C0E8C0EAC0ECC0EEC00080028003110504060207020A400B100C010E500F08101067
:400AC00011141302164017101A441C881D0C22C423302608271028112A222E403110324835103608372038083D143E3241084380450846804F0856805780764088048A04FA
:400B000090089104921096089A029C019F11AE08B302B480B584C0ACC27CC45ECA1FCC6ECEE2D0CAE810ECA01302168030803B023E80C430CC10CE6052205E8097029B02F0
:400B4000A480D420D62053085A0197029B02A480A620AE40D420D640EE401B089B02A480A708AB01AE20B201C610EE607002DC0152045C0261028010832085208D049A041A
:400B8000A402AA04D404D601D802E0081B042440810183018802902099249B209C02A402A502C608C801E4014401800887029020930299259B209C02A502AB04B440D004FE
:400BC000EA0225029B02A480C880AC80B102B702EA105010540859045B205D20610167429020930299259B209C039F02A008B502D407D607D803EC0813027310778088022E
:400C00008B8093109C029F02B001B350C408DC01DE04E004E404E804EC05100F110112141A0D1C0E1D010003100A0000131264452109D846FC000300980402380000000011
:400C4000389FC000009F00009A8000009A000000980002000200980002000000131CE0030F800060000028000000004045060200010E00C021FFFFFF62A0F0410C00000072
:400C800009000000040404043003000100000000000040020010301000101012000000000000000000000000000000000F01140000000000050005010E00060020C0C00040
:400CC00000030300800040BCBC00B4000000000000FFFF00FF00000000393900380000000038380008000000000100000000000000000000000000000000000000000000E2
:400D000000000000000000000000000000000000000000000000000000000000000000000000000000000000000000000000000000000000000000000000000000000000B3
:400D40000000000000000000000000000000000000000000000000000000000000000000000000000000000000000000000000000000000000000000000000000000000073
:400D80000000000000000000000000000000000000000000000000000000000000000000000000000000000000000000000000000000000000000000000000000000000033
:400DC00000000000000000000000000000000000000000000000000000000000000000000000000000000000000000000000000000000000000000000000000000000000F3
:0200000490006A
:0400000000004007B5
:0200000490105A
:04000000BC90ACAF55
:0200000490303A
:02000000FE06FA
:0200000490402A
:4000000000000000000000000000000000000000000000000000000000000000000000000000000000000000000000000000000000000000000000000000000000000000C0
:400040000000000000000000000000000000000000000000000000000000000000000000000000000000000000000000000000000000000000000000000000000000000080
:400080000000000000000000000000000000000000000000000000000000000000000000000000000000000000000000000000000000000000000000000000000000000040
:4000C0000000000000000000000000000000000000000000000000000000000000000000000000000000000000000000000000000000000000000000000000000000000000
:0200000490501A
:0C00000000012E16106900012E1C0E6F6E
:00000001FF