:400000000080002011000000550E0000550E000008B5044B1A6803F53F5302331A6000F021FF00BFFA46004010B5054C237833B9044B13B10448AFF300800123237010BD91
:400040005882FF1F00000000C41D0000084B10B51BB108490848AFF300800848036803B910BD074B002BFBD0BDE81040184700BF000000005C82FF1FC41D0000C880FF1F1E
:400080000000000008B5002001F0D2F908BD00BF684620F007018D4619B572B6EFF311841E4B1B68DBB20F2B10D9103B23F0030202F1604202F564421168DB0003F018038A
:4000C000E0229A400A4022FA03F306E00F2B03D1134B1B681B0E00E0002383F31188114A136801331360012B01D101F079FC62B6FFF7C8FF72B684F3118801F059FA094A33
:400100001368013B13601BB901F073FC01F037FC62B6BDE819408546704700BF04ED00E020ED00E0F49CFF1F08B562B6054A064B1A60064A136843F002031360002001F004
:4001400069FBFBE73F19010014E000E010E000E008B500F037FF01F0C3FB084A136843F0050313604FF47A720121002000F0CAFF012000F053FF01F095FB08BD10E000E08C
:4001800000BFFDE708B5044800F036FF032000F0A1FC01F087FB08BDC81D000000B583B001A801F09DF90198013003B05DF804FB014B1868704700BF041000E001300E4BF8
:4001C000184003D5013860F001000130002308E00130094B184003D5013860F0010001300B46064A32F8302012B1591C012BEFDD0AB14FF0FF30704701000080D89CFF1F5B
:40020000294B9B68013B692B4AD8DFE803F03F4143454749494949494949494949494949494949494949494949494949494949494949494949494949494949494949494977
:400240004949494949494949494949494949494949494949494949494949494949494949494949494949494949494949494949494949354B37393B3D0C4870470C487047BE
:400280000C4870470C4870470C4870470C4870470C4870470C4870470C4870470C487047002070470B4870477482FF1FD81D0000441E0000781E0000A41E0000D81E00004C
:4002C0000C1F0000381F0000681F0000941F0000C81F0000101E000070B4EFF31086012383F310881E4B1D6A002207E022F003031B4C23445B6A834203D02032AA42F5D31D
:400300002A46B2F5A06F22D2154B22F003041C446062141D24331C44002304E0C85CE054C85C20B10133182BF8D900E00133C85C08B17F2BFAD90A4909698B4201D9084959
:400340000B61AA4207D12035054B1D6203E0044AD3680133D36086F3108870BC704700BF7482FF1FF0B4EFF31086012383F31088164BD3F82455002308E023F00302134C1A
:400380002244D2F82825824203D00833AB42F4D32B46B3F5A07F11D29C080C4A02EB8407C7F82805013402EB8402C2F82815AB4208D10835054BC3F8245503E0034A5369AF
:4003C0000133536186F31088F0BC70477482FF1F10B50446274BD868B0F1FF3F0ED1FFF7EDFE244BD860B0F1FF3F07D1224AD2F868360133C2F86836002010BD1D4BD868DA
:400400001E4B03EBC0035B881B1B002B1EDA1B4B022223F8302003EBC0035988154A13685B1A13601269934201D2124A1361FFF7C5FE104BD860B0F1FF3F07D10E4AD2F805
:4004400068360133C2F86836002010BD094AD1680A4B03EBC1035868011959605988091B5980A4B213681C1B146013699C4200D2146110BDCC80FF1F7482FF1FD89CFF1F67
:4004800010B5EFF31084012383F310880C4BDB699BB11420FFF79CFF78B10A4A02600422828041F6A122C28000228260202282812822C28108210182428284F3108810BDBE
:4004C0007482FF1F0046535070B5EFF31086012383F310880F4BDB69A3B917E02020FFF777FF054648B90BE0E1180A4A02EB8102526A45F82320013300E00023072BF3D92E
:40050000083400E00024B4F5A07FE7D386F3108870BD00BF7482FF1F70B5EFF31086012383F310880F4BDB69ABB917E00820FFF74FFF054650B90CE0E1180A4A02EB8102B7
:40054000D2F8282545F82320013300E00023012BF2D9023400E000244F2CE7D986F3108870BD00BF7482FF1F2DE9F84F002400E001340B5D0BB1332CFADD261D00D50336EF
:40058000B61018B94FF0900A002302E04FF0910A01239F001E440F2E0ADD0F3EB600244B9B699E4201D9224B9E61C7F13C040F26EFF31088012383F310881D4BDB699BB334
:4005C0000D468346B01C1A4AD2F86C360133C2F86C368000FFF7FCFE814628B33603B6B24AEA060AA0F800A0114BB3F86C364380FFF7DEFDC9F80400BBF1000F01D0C9F835
:4006000008B009F10809002304E0DA19E95C09F8021001339C42F8DCC7F13C039C4203DA3C44002309F8043088F31088BDE8F88F7482FF1F08B5FFF797FF08BD08B5064BC6
:40064000DB693BB1FFF7DCFD014618B1034B1868FFF7F0FF08BD00BF7482FF1FD49CFF1F30B40F4B1860EFF31085012383F3108800230EE00B4901EBC30040F6C412428051
:40068000074C246802FB03424260002221F833200133012BEEDD85F3108830BC704700BF7482FF1FD89CFF1F1C4BDB69834234D070B50446FFF772FD0546EFF31086012377
:4006C00083F31088154BDC6100B9022514B3144C2046FFF7C5FF2046FFF7C2FF0F4C0023C4F86C36FF220F4B1A75FFF7C9FEFFF7EBFEFFF711FFD4F87016D4F874365A1C45
:40070000C4F874262A46012000F04CF900F0C6F9FFF794FF86F3108870BD70477482FF1F4C89FF1FCC80FF1F08B5084B9B685BB9064B9860FFF782FF0549064B186800F009
:400740007FF80020FFF7B0FF08BD00BF7482FF1FFC1F0000D49CFF1F2DE9F84F0B9FB1F5805F04D30120FFF7DFFFBDE8F88F05468A4690461E461C1D00D50334A410B8F181
:40078000000F00D001354FEA85092C440F2C0ADD0F3CA400294B9B699C4201D9274B9C61C9F13C060F24EFF3108B012383F31088224BDB69002B3DD0A01C204AD2F86C36E4
:4007C0000133C2F86C368000FFF702FE90B32403A4B24AEA040AA0F800A0184BB3F86C3604464380FFF7E4FC21466060083100230DE0B8F1000F03D013B941F8238005E09E
:400800003A68101D3860126841F8232001339D42EFDC002305E003EB09020A98C05C885401339E42F7DCC9F13C039E4202DA4E4400238B558BF31088BDE8F88F7482FF1F5B
:400840000EB470B585B0099D0026334609E0252906D10134295D11B1252900D00136013301331C46E95C09B1332BF0DD0AAA039250B106F1910103AA01920095024689B218
:400880003046FFF769FF09E006F1900103AA01920095024689B23046FFF75EFF05B0BDE8704003B0704700BF0CB430B585B0089C002300E00133E25C0AB1332BFADD04AA0E
:4008C00009AD42F8045D019200940022FFF744FF05B0BDE8304002B0704700BFF8B5B0F5805F03D30120FFF71FFFF8BD04460E46EFF31085012383F310880E4BDB69ABB102
:400900000C4AD2F86C360133C2F86C360C20FFF75FFD074650B144F480540480054BB3F86C364380FFF744FC7860BE6085F31088F8BD00BF7482FF1F2DE9F041B0F5805F1A
:4009400004D30120FFF7F0FEBDE8F08104460F461646EFF31085012383F31088104BDB69CBB10F4AD2F86C360133C2F86C361020FFF72EFD804670B144F400540480084BD6
:40098000B3F86C364380FFF713FCC8F80400C8F80870C8F80C6085F31088BDE8F08100BF7482FF1F2DE9F843B0F5805F04D30120FFF7BAFEBDE8F8830446884617461E468D
:4009C000EFF31085012383F31088114BDB69DBB10F4AD2F86C360133C2F86C361420FFF7F7FC814680B144F440540480084BB3F86C364380FFF7DCFBC9F80400C9F808802A
:400A0000C9F80C70C9F8106085F31088BDE8F8837482FF1F0EB4F0B582B0BDF81C70B7F5805F03D30120FFF77FFE2FE00446EFF31086012383F31088174BDB6923B3023084
:400A4000154AD2F86C360133C2F86C368000FFF7BFFC0546C0B123039BB21F4307800E4BB3F86C364380FFF7A3FB686008AB0193002307E0019A111D019111689A1C45F8F5
:400A800022100133A342F5DB86F3108802B0BDE8F04003B0704700BF7482FF1F00B583B00A4B5B6813B90A4A084B5A60074B5A6800230193012300934FF47A730221042020
:400AC000FFF7A8FF03B05DF804FB00BF7482FF1F00A24A0410B5032838D8DFE800F002101E321C4B1B5C012B01D1002300E00123184A1354184600F011FA002010BD154B04
:400B00001B5C012B01D1002300E00123114A1354184600F00FFA002010BD0E4B1B5C012B01D1002300E001230A4A1354184600F00DFA002010BD2046FFF7CCFF0134E4B22F
:400B400000E00024022CF6D9002010BD6FF0130010BD00BF1089FF1FFEE700BFF0B40022174611E050F82760F3B226F0FF0608E001EB420511F812406D78A5550132013BC7
:400B8000DBB2002BF4D101372B2FEBD9F0BC704738B500242E4B1C80582202331A70082202331A8018232B4A13702C2102321180023213704D21023211800232137043F688
:400BC0003F0102321180023213700622224B1A705222A3F580731A70204B1B78DBB2204A13704FF4E3621F4B1A8042F25122023B1A8019250CE01C4B1B7803F0010343EAC7
:400C0000440404F003044FF4F07000F071FF013D0DB1032CEFD115B90320FFF79DFF134A4FF48073138007231370002310490B7048200231087013700532137002220D4B6A
:400C40001A700D4A137843F01F03137038BD00BF8040004086400040004300400F010049A14600402242004025420040044000400640004001400040A243004008B50A466B
:400C8000002101F096F808BDF8B5164B1B78DBB2154E3478E4B2154F3D78EDB203F00701134A11701B090132137044F00303337045F003033B7003220E4B1A7040230E4A0B
:400CC00013700232137030220C4B1A70202203331A700A2000F03CFE3D7034704422084B1A70F8BDCF010049F8460040F94600406E5800400D51004001590040205B0040D9
:400D00007658004008B501F049F808BD38B572B661223A4B1A70FFF73BFF00240CE0384D630019194A0011462A44084691882858FFF7A4FF0134E4B2072CF0D900240BE08B
:400D40002F48A20011194B0003441A8F596B186BFFF7D8FF0134E4B2012CF1D929494FF09040FFF7FBFE04212748FFF787FF042226492748FFF7C6FF264A137843F00203AD
:400D800013701032137843F002031370224C237843F040032370A2F58632513A137843F01003137008221D491D48FFF7ABFF0A221C491D48FFF7A6FF0A221C491C48FFF7D7
:400DC000A1FF08221B491C48FFF79CFF08221B491B48FFF797FF08221A491B48FFF792FF1A4A137843F008031370FFF74DFF0E2221461748FFF786FF38BD00BF004800403D
:400E000020200000B000004800760040380D00480876004003500140A0430040000D004802510040080D0048C0510040140D0048F0510040200D004812510040280D0048AD
:400E400022510040300D00483251004022430040B043004008B500F075FF03680C2B00D1FEE7FEE708B5104E104D16E029686B68AC68002204E051F8040B43F8040B04327D
:400E8000A242F8D1E868002203E0002143F8041B04328242F9D11035013E002EE6D100F057FFFFF741F9FEE7010000006422000008B5114A114B1A60114A136843F4007338
:400EC000136000230AE0032B03D80E4A52F8231000E00D490D4A42F8231001332F2BF2D90B4B1A780B4B1A70084A0B4B1A60FFF70DFF00F013FD08BD0004FA050CED00E0B4
:400F000014ED00E000000000550E00000080FF1FBC760040C080FF1F08ED00E0044A137803F0BF03800100F0400018431070704700510040044A137803F0FE0300F001000A
:400F400018431070704700BF20510040044A137803F07F03C001C0B218431070704700BF005100407222084B1A70202203F580731A700622653B1A70472210331A7000223A
:400F800050331A70704700BF8B64004010B500F0B7FD04460A4A137843F02003137002F58072137843F010031370053A137843F01003137000F0A4FC204600F0A5FD10BDEF
:400FC0009B64004008B5054B1B7823B9FFF7CAFF0122024B1A70FFF7D9FF08BD1389FF1F034B1B7813F0040FFAD1024B18707047666500404565004038B5074B1B782BB937
:4010000038BDFFF7EDFF0134A4B201E005460024285D0028F5D138BD1389FF1F38B5EFF3108572B602284ED82D4B53F82030002B4BD02B4A013B42F820302A4B53F820305C
:40104000032B07D10222274B43F820200022264B43F8202000F01CFB244B1B68002B36D1234B1C6800F0F2FAB0F1FF3F31D0214B53F82020204B1B689A422CD9B4F1FF3FC9
:4010800003D00221174A42F824101C4A52F820201343194A13600022124B43F8202000F091FA174B53F820304BB10024144B43F8204040F0004000F0A5FC20460CE000F080
:4010C000A1FC002008E0032006E0042004E0002002E0002000E0002085F3108838BD00BF1481FF1FB081FF1F3089FF1FF49CFF1FA081FF1FC82100004489FF1FBC210000DD
:401100001889FF1FF8B504460E461746EFF3108572B600F10A01A220FFF70EFC34BB04EB44029300184AD35803EB43018A0017498A58B2421CD34FB103EB43039900134B9B
:4011400019448B689F4215D3974215D8B6B123010F4AD358A3B92301D1180120D0504F60711E204600F086F800200AE0032008E0082006E0082004E0082002E0082000E084
:40118000072085F31088F8BD8421000098210000789DFF1F18B108B5C368984708BD704708B508B1406800E00020022816D80C4B53F8203093B10A4A013B42F82030094BCC
:4011C00053F82030032B07D10222064B43F820200022054B43F8202000F05AFA08BD00BF1481FF1FB081FF1F3089FF1F18B1034640689B6801E00023184602281DD80F4A39
:4012000052F82020CAB10E4A52F82010032914D010B50C4C54F820201A4344F820200A4A52F82020134207D0012905D10222044B43F8202000F02CFA10BD7047A4210000EE
:40124000B081FF1F3089FF1F2489FF1F80B108B50378012B06D013B1032B06D008BDFFF79FFF08BDFFF7C2FF08BDFFF793FF08BD704700BF30B400EB40029300214AD258B4
:40128000214B03EBC2035C68B4F1FF3F04D11E4B03EBC20250602DE01C4B03EB04139B6899420AD2184D05EBC2025060174A02EB04125B1A93601DE01C46144B03EB04133D
:4012C0009A68891ADB68B3F1FF3F05D00F4A02EB031292689142EFD2B3F1FF3F05D00B4A02EB031295686D1A9560084A02EB0414E0601C46054B03EB00108160C46030BCA7
:40130000704700BF84210000E880FF1F789DFF1F38B5414A02EBC0035C6852F83030013342F8303000EB40018A003C498A58934203D90022384B43F83020B4F1FF3F6AD05A
:40134000374B03EB04139B68002B5FD1214600E01946334B03EB0113DB68B3F1FF3F05D02F4A02EB03129268002AF1D02C4A02EB01114FF0FF32CA60274A02EBC000436038
:40138000B3F1FF3F07D0264A02EB03139A68013A9A6000E02C4604EB44029300214A13441B7A03BB04EB440293001E4A134459681D4B53F8215005EB850293001B4AD35C91
:4013C00053B905EB85029300184A13445A6801320A31AA20FFF7B0FA05EB8505AB0013481844FFF733FF0E4B03EB0413DD68596821B101392046FFF73DFF03E0240100224E
:40140000074B1A51B5F1FF3FC4D138BD044A02EB0414013BA36038BDE880FF1F98210000789DFF1F84210000942100007021000038B5EFF3108572B6002838D1FFF768FF83
:40144000204B1B68002B34D11F4B1C6800F0FEF8B0F1FF3F2FD01D4B53F820201C4B1B689A422AD9B4F1FF3F03D00221194A42F82410194A52F820201343154A13600022FF
:40148000144B43F8202000F09DF8144B53F820304BB10024114B43F8204040F0004000F0B1FA20460AE000F0ADFA002006E0032004E0002002E0002000E0002085F310888B
:4014C00038BD00BFF49CFF1FA081FF1FC82100004489FF1FB081FF1FBC2100001889FF1F20B1034A12680260002070470E207047A081FF1F38B500F065F804460E4B53F86F
:401500002030B3B100220C4B43F820200B4D296801313020FFF7E2F92968094B53F8212001313720FFF708FA44F00044054B1C6038BD044B186038BD1889FF1FA081FF1FE2
:40154000C8210000F89CFF1F10B500F07FF8124B1B68B0F1FF3F1AD0104A52F82010104A1268914213D9B3F1FF3F03D002240D4941F8234000210B4B43F820100A4B53F845
:4015800020301A43064B1A60FFF7B4FF10BD43F00043064A136010BDA081FF1FC82100004489FF1FB081FF1FBC210000F89CFF1F034B1B6813B10022014B1A60704700BF53
:4015C000E89CFF1FF0B4184B19880B0A174AD356B3F1FF3F01D1535601E008335BB2144D55F82320134850F82200134E56F8224045F82340114D2F6846F822702A60B4F121
:40160000FF3F09D10E4A42F82340012202FA03F321EA0301044B19800A4B19680A4A42F820101860F0BC70474089FF1F642000006081FF1F609DFF1FFC80FF1F3C89FF1F20
:401640002081FF1FA081FF1FA481FF1F0C4B1A88130A0C49CB56B3F1FF3F01D18B5601E008335BB2B3F1FF3F06D0074A52F82320064B53F8220070474FF0FF30704700BFF0
:401680004089FF1F642000006081FF1F609DFF1F30B4144B53F82020134C2368134951F823502560124C44F823004FF0FF3441F82340104951F82210A1420AD10E4951F853
:4016C00020400E480188214301800D4941F8223002E0064840F82130064941F8223030BC704700BF0881FF1F3C89FF1FFC80FF1F609DFF1F2081FF1FC82100004089FF1F22
:401700006081FF1F10B150F8210070474FF0FF30704700BF0122014B1A60FEE7F09CFF1FF8B500241AE0651C1B4F57F824102846FEF7D2FD194B53F8246031462846FEF7F5
:4017400011FE2B4657F8242003210120FFF7ACF8324629461020FFF7EFF82C46022CE2DD002416E00E4B53F824500A350D4E56F824102846FEF7B0FD2B4656F8242003219F
:401780000120FFF791F8552229461420FFF7D4F80134002CE6D0F8BDBC81FF1FC821000090210000E480FF1F70B50546124B53F8306000241CE0104B03EBC503214658686A
:4017C000FFF7A0FF0D4A52F82030013B42F820300B4B53F82030032B07D10222084B43F820200022074B43F82020FFF751FF0134B442E0D370BD00BF642100001481FF1F7D
:40180000B081FF1F3089FF1F18B908B5FFF7CCFF08BD70471A4B1B4ADA621B4A9A631B4ADA63EFF3108272B6194B1B6823BB10B5044600F055F8174B1C600122144B1A6026
:40184000FFF76EFF2046FFF7DFFFFFF7FFFEB0F1FF3F0ED0104B53F82030104A11680B43136000220E4B43F82020FFF7ABFE00F0C9F862B6FFF74EFF82F310880720704705
:401880000080FF1FC51900008919000091000000F09CFF1F889DFF1FBC2100004489FF1FB081FF1F08B5EFF3108272B6094B1968094B1B6833B94FF0FF30084B43F8210067
:4018C000002000E0022010B9084600F0F4F882F3108808BDA081FF1FF49CFF1FF080FF1F10B5EFF3108472B600F03CF8034A136843F07F43136084F3108810BD20ED00E006
:40190000054A137843F0080313701032137843F008031370704700BFA24300400B4A7F2313708021517007E0DA0002F1804202F5F042013BDBB21370002BF5D1DB0003F15C
:40194000804303F5F04300221A707047D481FF1F08B5034B1B7A00FB03F000F0C9F808BDDC81FF1F18484FF47F0102680A43026016486FF07F4102680A4002607047144842
:401980004FF080510160704772B611484FF000610160FFF7D9FD0F48006800F0E5F858B10C4800684FF080730B4A0C490FB40FB46FF00600004700BF6FF0060062B60047CF
:4019C00062B600DF08B0704720ED00E01CED00E004ED00E0F89CFF1F051A0000C1190000EFF30880054908600548006880F3088870470248006880F308887047EC81FF1FA9
:401A0000C881FF1F411C8900154A11440968154A136899421AD0F0B444464D4656465F46F0B400B5104C9B002344EFF308851D60116089002144096881F3088802BC8E468A
:401A4000F0BCA046A946B246BB46F0BC002806DB00B500F07DF802BC8E46FFF7D3BF7047EC2100004889FF1FCC81FF1FF0B444464D4656465F46F0B400B5EFF3038308B466
:401A80008000174901440968164A0244EFF30883136088471448804704BC4FF08070024382F3038801BC8646F0BCA046A946B246BB46F0BC704780000A4901440A6882F37F
:401AC000088804BC4FF08070024382F3038808BC9E46F0BCA046A946B246BB46F0BC7047D42100006C9DFF1F111B0000000000000230800803D000BF01380046FCD1704706
:401B0000EFF3108072B6704780F31088704700BF08B572B6014B1868FFF7CDFFA081FF1F10B5094C216801313020FEF7D7FE2168064B53F8212001313720FEF7FDFE2068CB
:401B4000FFF794FF10BD00BFA081FF1FC821000008B562B6FFF7E4FF72B600F053F8014B186808BDF89CFF1F00280BDA20F000400130054B53F82000044B1B68181A18BFB0
:401B80000120704701207047EC2100004889FF1F054B53F82020054B53F820309A4201D101207047002070471481FF1FB021000038B5FFF707FD04460E4B53F82030B3B149
:401BC00000220C4B43F820200B4D296801313020FEF784FE2968094B53F8212001313720FEF7AAFE44F00044054B1C6038BD044B186038BD1889FF1FA081FF1FC82100009C
:401C0000F89CFF1F38B5444B1C680022434B1A60434A52F82430013342F82430414B53F824502046FFF7B4FF012801D0A54204D103223D4B43F8242003E002223A4B43F8D8
:401C400024203A4B53F82410394A136823EA01031360384B53F824402F4B1C60B5F1FF3F0FD0314B53F82530032B07D102222E4B43F825200022304B43F825202846FFF7EF
:401C800007FDFFF7E3FCB0F1FF3F19D1B4F1FF3F11D00022244B43F824201F4D296801313020FEF71BFE2968244B53F8212001313720FEF741FE44F00044214B1C6038BD83
:401CC0001E4B53F820201A4B1B689A4216D80022154B43F82420104D296801313020FEF7FDFD2968154B53F8212001313720FEF723FE44F00044124B1C6038BD00210A4A07
:401D000042F82010094A52F820201343084A1360FFF74EFF38BD00BFA081FF1FE89CFF1F1481FF1FF080FF1FB081FF1FBC2100004489FF1FA481FF1F3089FF1FC82100000E
:401D4000F89CFF1F014B1868704700BF5082FF1F0E4B70B51E460E4C0025E41AA410A54204D056F8253098470135F8E700F068FA084B094C1E46E41AA4100025A54204D02A
:401D800056F8253098470135F8E770BD4C2200004C2200004C2200005422000010B5431E0A44914204D011F8014B03F8014FF8E710BD03460244934202D003F8011BFAE70A
:401DC000704700000000000048656C6C6F20576F726C640A0000000045786365656465642053594D424F4C5F5441424C455F534C4F545320287365652078547261636547EB
:401E000065744C6173744572726F72290000000045786365656465642053594D424F4C5F4D41585F4C454E4754482028736565207854726163654765744C617374457272A6
:401E40006F7229004578636565646564204F424A4543545F444154415F534C4F54532028736565207854726163654765744C6173744572726F722900537472696E672074FF
:401E80006F6F206C6F6E672028736565207854726163654765744C6173744572726F7229000000005452435F53545245414D5F504F52545F524541445F44415441207265DE
:401EC0007475726E6564206572726F722028213D2030292E000000005452435F53545245414D5F504F52545F57524954455F444154412072657475726E6564206572726F3D
:401F0000722028213D2030292E000000496E76616C6964206576656E7420636F64652028736565207854726163654765744C6173744572726F722900457863656564656414
:401F400020495352206E657374696E672028736565207854726163654765744C6173744572726F7229000000445754206E6F7420737570706F7274656420287365652078C5
:401F800054726163654765744C6173744572726F722900004457545F435943434E54206E6F7420737570706F727465642028736565207854726163654765744C61737445BD
:401FC00072726F7229000000436F756C64206E6F742063726561746520547A4374726C2028736565207854726163654765744C6173744572726F7229000000005265636FF8
:40200000726465722073746F7070656420696E2070727654726163654572726F72282900004F00400C00405100403000000001400010001401408006001B014000010040B6
:402040000140000A004C01400002105001401000801A0140700C0048800000500140F00C00481000FF00010102020202030303030303030304040404040404040404040480
:4020800004040404050505050505050505050505050505050505050505050505050505050505050506060606060606060606060606060606060606060606060606060606C8
:4020C0000606060606060606060606060606060606060606060606060606060606060606060606060707070707070707070707070707070707070707070707070707070744
:4021000007070707070707070707070707070707070707070707070707070707070707070707070707070707070707070707070707070707070707070707070707070707DF
:40214000070707070707070707070707070707070707070707070707070707070707070707070707010000006C2100000000000000000000020000000000000000000000D3
:40218000FFFFFFFF00000000000000000000000000000000000000001027000000000000010000000000000000000000000000000100000001000000010000008000000068
:4021C0000100000008000000010000000100000008000000510100008101000085010000211B0000211B0000211B000000000000000000000000000001000000616C726D11
:402200005F53616D706C65416C61726D0000000074736B5F696E69740000000074736B5F6261636B67726F756E64000074736B5F53616D706C655461736B000043000000D1
:40224000F8B500BFF8BC08BC9E4670474D000000B10E0000F8B500BFF8BC08BC9E4670472900000078220000C880FF1F90010000381D0000000000000000000088130000AA
:40228000FF00FFFF01000000FFFFFFFF88130000FF000000FC21000000000000FFFFFFFFFFFFFFFFFFFFFFFFFFFFFFFF0100000002000000FFFFFFFF00000000000000007E
:4022C00003000000010000000100000001000000FFFFFFFFFFFFFFFFFFFFFFFFFFFFFFFFFFFFFFFFFFFFFFFFFFFFFFFFFFFFFFFFFFFFFFFFFFFFFFFFFFFFFFFFFFFFFFFF08
:40230000FFFFFFFFFFFFFFFFFFFFFFFFFFFFFFFFFFFFFFFFFFFFFFFFFFFFFFFFFFFFFFFFFFFFFFFFFFFFFFFFFFFFFFFFFFFFFFFFFFFFFFFFFFFFFFFFFFFFFFFFFFFFFFFFDD
:40234000FFFFFFFFFFFFFFFFFFFFFFFFFFFFFFFFFFFFFFFFFFFFFFFFFFFFFFFFFFFFFFFF030000000300000003000000102200001C2200002C2200008C9FFF1F000000006D
:40238000389DFF1F7F800000030000000000A08C401901004800000000A24A040000000000000000000000000000000000000000000000000000000000000000000000006A
:4023C0003C2200000000000000000000000000000000000000000000000000000000000000000000000000000000000000000000000000000000000000000000000000007F
:40240000F081FF1F0000000000000000000000000000000000000000000000000000000000000000000000000000000000000000000000000000000000000000000000000D
:40244000000000000000000000000000000000000000000000000000000000000000000000000000000000000000000000000000000000000000000000000000000000005C
:40248000000000000000000000000000000000000000000000000000000000000000000000000000000000000000000000000000000000000000000000000000000000001C
:4024C00000000000000000000000000000000000000000000000000000000000000000000000000000000000000000000000000000000000000000000000000000000000DC
:40250000000000000000000000000000000000000000000000000000000000000000000000000000000000000000000000000000000000000000000000000000000000009B
:020000040003F7
:0200000480007A
:4000000001450040024F004009520040015B004003640040026500403000014035010140250201404C0301401F0401403F0501403B06014040070140420801404609014036
:40004000310A01403D0B01404E0C0140350D0140440E01402B0F014039140140401501402F1601403C170140221801404F190140081A01404E1B01400D40014016410140BA
:400080000C4201400A430140054401400745014009460140094701400548014004490140124C0140104D014006500140035101407E0201400A4B0002010208A90933103816
:4000C0001110609061A47C4027848301880F8B72860F8B3801040601070409010F01111013201520171019081D0223082580274029402B802F02300135FF39083F14580421
:4001000059045C025F01802086018A048C04900894109A209E08A210A640A801AE02B403B67CB880BE40D608D804D904DB04DC29DD90DF01010403020464058106400702A4
:4001400009800A400B040C810D040E041212134214021502172819011A401C041D801E092318280129012A182B0A2E402F0830A83202340135803860390A3B043E013F4434
:400180005D406402804086108710C0F5C2FBC4FDCA3FCC9FCEDFD610D810E002E40401040A020C050D041005170318051D021E0520052404260129042C052D04300232013A
:4001C000330235043604370139203F105804590C5C225F019701B101D602D739D804D904DB0CDC22DD20DF01021003020460084009800B400C010D800F0412431304165114
:400200001C401E021F04220225202688272029012A102B022E802F0830083180368438403A013B443D803F025A206104682869066A846B407090720279407D4082488704C2
:4002400089208B058E019460950696049704980199019A409E189F20A180A204A4A8A602A702A940AF20B202C0C5C2D9C4BDCA3DCC5ACE9BD604D802DE18E080E210E68007
:400280000E021A021F012004270228042E013002320433023401350138083E0452035302580459045B045C215D205F01AE01B001D401D804D904DB0CDC22DD20DF01008074
:4002C0000581060107900A080D480F041008134214401602188019041A081F022108220823042A092B022C402D032F02310933403581360839813AC03B043E803F04450806
:4003000046105E40680869406A207D40924095409620970498409A4B9B409D049E10A540A702AA48AF08B680C0B1C2E2C49BCA9BCCDBCE5BD610DE10E280EC1014011E010E
:40034000220124012A0130013E014060410549FF4AFF4BFF4DA04F045018580459045A045C225D015F01604062C06440654066C068C06AC06CC06EC0C060C105C510C7205F
:40038000C822C9FFCAFFCBFFCDAFCE0FCF04D018D280D804D904DA04DB04DC22DD11DF01E040E2C0E440E540E6C0E8C0EAC0ECC0EEC0012003420520060107D00801090870
:4003C0000C010E100F06120113041580162417011E40280929202A812C202F82310833C235823B043E803F04484A4C084E06500252027340820183088B048C208D489208BC
:4004000093049740984099829A919B109F80A108A302A440A840AB02B140B712C0FBC2FCC4F5CADDCC9BCE52D23CE202E801EC20EE0501560309058409070B380D040F80CC
:400440001201150A1601171019011D041E022184256029802B042D84300131083202337F378039083E013F41406141024240450D46EC47FB483D49FF4AFF4BFF4C224EF0BF
:400480004F0850045602572C580459045A045B045C035F0162C0644065016610671168C069016B116C406D016E406F01D409D904DB04DC20DF010E400F221D041F01276263
:4004C00028022A802D802E092F083090310232403688372039613C023DA83E10459047024E084F085520560857C258045A205B42600164406D8C6E036F1D75808A808D02D5
:400500009063912393109544970898589A329C029D84A020A110A288A481A5C8A601A789B101B208B504B740C2B0CAF8CC7DCEFDD0B0D220D60FD888E202E430E801EC4052
:40054000EE05580459045C225F0181FC8303862088268A118C268D988E098F02919A951396199764983999219A069BD89C209D389FC0A002A102A406A598A702A83FA9028E
:40058000AB98AC04AD9AB007B23EB30FB513B7E0BA2ABB88D602D712D804D904DB04DC03DD30DF01011103010450050408020D080F06109011481408150216121C501E1058
:4005C0001F12242025102688271828022B402D842F88308033013681371839713C023D803E304C044F105E08670C6C25761A7C087F109001912195409610972898409B01BD
:400600009C109F18A204A481A580A742B502C0EBC2E8C4FDCAF9CCF9CE9DD640E2800109030609100D020F0D1503170C19051B0A1C0124012510280129102D1033103601E1
:40064000370F3B803E403F044060410349FF4AFF4BFF4DA04F045018580459045A045C025D015F01604062C06440654066C068C06AC06CC06EC092019A02A602B002B40103
:40068000C020C103C501C702C811C9FFCAFFCBFFCDAFCE0FCF04D018D280D804D904DA04DB04DC21DD11DF01E040E2C0E440E540E6C0E8C0EAC0ECC0EEC0074108400942F4
:4006C0000A040C080D900F8010201542171819021A041B101C01254026042F16309833413718380239633C023D803E1041084204450848204F2051087102880890029120A5
:4007000095409B019F58A408A580A740B110B204C090C2FAC4F4CA70CC6FCEBDD046D220E420EC20060222022E01320234014020410349FF4AFF4BFF4DA04F045018528089
:40074000580459045A045B045C215D115F01604062C06440654066C068C06AC06CC06EC08414862B883896029C109E27A40DA610B203B43CB820C060C103C510C620C80A74
:40078000C9FFCAFFCBFFCDAFCE0FCF04D018D804D904DA04DC20DD01DF01E040E2C0E440E540E6C0E8C0EAC0ECC0EEC00004051007100D800E201082170818141B101D10FC
:4007C0001E202B402D403008310233443745380239603E063F804004422046204C804F2056207002800182028502861087018C10C064C2A0C429CA11CCDBCEDDD046D22092
:40080000E408580459045C225F0183088414851089218A038B0E8CDC8E22910C9323940C9521967197069A209B0C9C109E40A410A540A6ACA703A809AAD0B2E0B360B41F25
:40084000B510B70FB908BA08BB80BF10C063C102C6BEC7C0C82CC9FFCAFFCBFFCEF0CF44D00CD804D904DA04DC33DD03DF01E6C0EA40EB02010202100302051006200701F3
:40088000080E0C100E100F0110011201130417241C041D101E10272929042A112B022C1030043608372538103B043C043D203E103F01441045144E085660570187088C0A10
:4008C0008D04901093059610980999029A109C029E409F21A104A208A302A701B110B301C0EDC2ECC465CA4FCCE2CEE6D060D220E008EC2000040103030404030705090313
:400900000B040C02110A130414031503170C1B082A013003330F340438023B083E114004454049FF4A074BFF4C404D204EF04F0550085401580459045A045B045C325D33D7
:400940005F01604061A862406320D804D904DC22DF010210034204110660071908090C420E100F04120113041402169417401D021E0826082710280929022A012C022F025F
:400980003342360837213A103B043D083E103F0245024F01550456045C015D105E488A8092409304961098499A919B089E249F41A302A701AC08AD02C0FDC2FCC4F5CA0DF0
:4009C000CCE9CEE6D080D6F0EE02004202080402060D08620A140C8D1040141116221A801C8D200D2280248D288D320F348036703A883E105440580459045B045C205F01AA
:400A0000D608D804D904DB04DC22DD90DF010101020204210584084009020A040B400E110F8C1010114017151C031D841F1028122A082D412E043040310232403442360280
:400A4000378039613E083F404110420458806240630264056720689269107110728073228482868088808B809062912392119312954096C09708981A99809A329B15A020A1
:400A8000A102A346A401A588A711AA10ABA0B004B120C0F9C2FBC475CADACC99CE5DD608D878E00AE420E602E801EE020101090119013301580459045C325F010140045040
:400AC000065008420A040D200E221010110113421408150216221D101E601F44201021082520260527052C202F4030203601370438023B103F1A4408450847014D804E049B
:400B0000571459805A405D025E085F0467067E047F0481128D408F029042910392049352954096409708985A9A72A020A301A508A710A910AC05AD10AF06B010B722C0F135
:400B4000C2EBC4FDCAC0CCC4CEE5D0E0D230D680D830E048E210EC2C1280162030203202340836403B823E208601C430CCF0CE70E21005400B200E105004570187018940ED
:400B80008B408C04920197829C08A642AA80AC20C080C230D420D620E610EA40EC2053085A018808920197029C08A642AF10B610D420D640EC401B088602A440A642A70885
:400BC000AB01B040C610E240EE20750285028D20DE04E00857045F0165209920D402D601D8011B0425018B049701B704C608C801E201E8020B480C08440184089708A90153
:400C0000AB05C20ED0042502A440AE40C880EE400080A440B102C04051205620570258205F0460116602841087068A209B809C01AB80AF40D407D607D803E40110107380BE
:400C4000740284029B809C10AA02AC20B001B120B411C408DC01DE04E808EC0D100D110112141A0C1C0D1D0100AB0103100A00005014004906000080001F79006600990029
:400C800000010026F90A0651280000007800000002000080071FF800FF0000000400000007076680181880608000080000000044630205000400C00E18FFFFFF62A0F0411C
:400CC0000C00000018000000040404043333000100000000000040020010301000101012000000000000000000000000000000000F01140000000000040106000D00070052
:400D000038C0C00000030300800040BCBC00B400000000004000000000000000C000000000FFFF00FF000000003939003800000004383800080000000001000000000000E5
:400D40000000000000000000000000000000000000000000000000000000000000000000000000000000000000000000000000000000000000000000000000000000000073
:400D80000000000000000000000000000000000000000000000000000000000000000000000000000000000000000000000000000000000000000000000000000000000033
:400DC00000000000000000000000000000000000000000000000000000000000000000000000000000000000000000000000000000000000000000000000000000000000F3
:400E000000000000000000000000000000000000000000000000000000000000000000000000000000000000000000000000000000000000000000000000000000000000B2
:0200000490006A
:0400000000004007B5
:0200000490105A
:04000000BC90ACAF55
:0200000490303A
:02000000372A9D
:0200000490402A
:4000000000000000000000000000000000000000000000000000000000000000000000000000000000000000000000000000000000000000000000000000000000000000C0
:400040000000000000000000000000000000000000000000000000000000000000000000000000000000000000000000000000000000000000000000000000000000000080
:400080000000000000000000000000000000000000000000000000000000000000000000000000000000000000000000000000000000000000000000000000000000000040
:4000C0000000000000000000000000000000000000000000000000000000000000000000000000000000000000000000000000000000000000000000000000000000000000
:0200000490501A
:0C00000000012E16106900012E27479306
:00000001FF