:400000000080002011000000ED040000ED04000008B5044B1A6803F53F5302331A6000F06DFA00BFFA46004010B5054C237833B9044B13B10448AFF300800123237010BD2E
:400040004881FF1F00000000C0080000084B10B51BB108490848AFF300800848036803B910BD074B002BFBD0BDE81040184700BF000000004C81FF1FC0080000C880FF1F72
:400080000000000010B584B062B600F08DF800241CE07F2C05DC00221146E0B200F09EF808E0E0B2A0F17F01C0430022C9B2C0B200F094F80023019302E0019B0133019367
:4000C000019A42F20F739A42F7DD0134FF2CE0DDFF241DE07F2C06DCE1B2C8430022C0B200F07CF808E0E1B2A1F17F02C943D2B2C9B2002000F072F80023029302E0029B55
:4001000001330293029A42F20F739A42F7DD013C002CDFDAFF2411E0E2B2D143C9B2002000F05CF80023039302E0039B01330393039A42F20F739A42F7DD013C002CEBDA03
:40014000642000F04DFBA2E738B504460D46032824D8DFE800F00209101E084600F02AFA104B1D55002038BD084600F02FFA0D4B1D55002038BD084600F034FA094B1D55DD
:40018000002038BD29462046FFF7DEFF0134E4B200E00024022CF5D9002038BD6FF0130038BD00BF6481FF1F38B50024254609E00021094B19552046FFF7C6FF00B1054614
:4001C0000134E4B2022CF3D900F0E2FA00F098FA00F04EFA284638BD6481FF1F70B50E461546074C34F8100000F01CFA34F8160000F060FA34F8150000F0A4FA002070BD3D
:40020000C4080000FEE700BFF0B40022174611E050F82760F3B226F0FF0608E001EB420511F812406D78A5550132013BDBB2002BF4D101372A2FEBD9F0BC704738B50024A1
:400240002E4B1C80582202331A70082202331A8018232B4A13702C2102321180023213704D21023211800232137043F63F0102321180023213700622224B1A705222A3F531
:4002800080731A70204B1B78DBB2204A13704FF4E3621F4B1A8042F25122023B1A8019250CE01C4B1B7803F0010343EA440404F003044FF4F07000F0B3FA013D0DB1032C49
:4002C000EFD115B90320FFF79DFF134A4FF48073138007231370002310490B7048200231087013700532137002220D4B1A700D4A137843F01F03137038BD00BF804000402D
:4003000086400040004300400F010049A14600402242004025420040044000400640004001400040A243004008B50A46002100F0BEFA08BDF8B5164B1B78DBB2154E3478E1
:40034000E4B2154F3D78EDB203F00701134A11701B090132137044F00303337045F003033B7003220E4B1A7040230E4A13700232137030220C4B1A70202203331A700A205D
:4003800000F044FA3D7034704422084B1A70F8BDCF010049F8460040F94600406E5800400D51004001590040205B00407658004008B500F071FA08BD38B572B66122374BB2
:4003C0001A70FFF73BFF00240CE0354D630019194A0011462A44084691882858FFF7A4FF0134E4B2072CF0D900240BE02C49A3001819420088181022416B006BFFF7D8FF76
:400400000134E4B2002CF1D026494FF09040FFF7FBFE04212448FFF787FF042223492448FFF7C6FF234A137843F0020313701032137843F0020313701F4C237843F040031A
:400440002370A2F58632513A137843F01003137008221A491A48FFF7ABFF0A2219491A48FFF7A6FF082219491948FFF7A1FF082218491948FFF79CFF082218491848FFF7C0
:4004800097FF184A137843F008031370FFF752FF0E2221461448FFF78BFF38BD00480040C40A0000AC00004800760040F00D00480876004003500140A0430040C40D004876
:4004C00002510040CC0D0048C0510040D80D004812510040E00D004822510040E80D00483251004022430040B043004008B500F0A7F903680C2B00D1FEE7FEE708B5104EC2
:40050000104D16E029686B68AC68002204E051F8040B43F8040B0432A242F8D1E868002203E0002143F8041B04328242F9D11035013E002EE6D100F089F9FFF7A3FDFEE77B
:4005400001000000240B000008B5114A114B1A60114A136843F40073136000230AE0032B03D80E4A52F8231000E00D490D4A42F8231001332F2BF2D90B4B1A780B4B1A7064
:40058000084A0B4B1A60FFF717FF00F00FF908BD0004FA050CED00E014ED00E000000000ED0400000080FF1FBC760040C080FF1F08ED00E0044A137803F0BF03800100F060
:4005C000400018431070704700510040044A137803F0FE0300F0010018431070704700BF20510040044A137803F07F03C001C0B218431070704700BF00510040024A13789E
:4006000043F080031370704771640040014B1880704700BF08680040014B1880704700BF88680040014B1880704700BF4868004008B50E4A137803F0C00343F009031370BF
:400640002332137843F0010313700132137843F0010313704FF6FF70FFF7D8FF4FF6FF70FFF7DAFF0020FFF7DDFF08BD7164004008B5054B1B7823B9FFF7DAFF0122024BDD
:400680001A70FFF7BBFF08BD6781FF1F024A137843F080031370704772640040014B1880704700BF00680040014B1880704700BF80680040014B1880704700BF4068004092
:4006C00008B50E4A137803F0C00343F0090313701E32137843F0010313700132137843F0010313704FF6FF70FFF7D8FF4FF6FF70FFF7DAFF0020FFF7DDFF08BD7264004004
:4007000008B5054B1B7823B9FFF7DAFF0122024B1A70FFF7BBFF08BD6881FF1F024A137843F080031370704770640040014B1880704700BF04680040014B1880704700BFBD
:4007400084680040014B1880704700BF4468004008B50E4A137803F0C00343F0090313702232137843F0010313700132137843F0010313704FF6FF70FFF7D8FF4FF6FF70A9
:40078000FFF7DAFF0020FFF7DDFF08BD7064004008B5054B1B7823B9FFF7DAFF0122024B1A70FFF7BBFF08BD6981FF1F0B4A7F2313708021517007E0DA0002F1804202F594
:4007C000F042013BDBB21370002BF5D1DB0003F1804303F5F04300221A707047CC80FF1F10B5044605E0084B186800F019F8A4F50044B4F5004FF6D8034B586800FB04F098
:4008000000F00EF810BD00BFD480FF1F08B5034B1B7A00FB03F000F003F808BDD480FF1F0230800803D000BF01380046FCD17047EFF3108072B6704780F31088704700BFF3
:40084000014B1868704700BF4481FF1F0E4B70B51E460E4C0025E41AA410A54204D056F8253098470135F8E700F04AF9084B094C1E46E41AA4100025A54204D056F825307A
:4008800098470135F8E770BD0C0B00000C0B00000C0B0000140B000010B5431E0A44914204D011F8014B03F8014FF8E710BD03460244934202D003F8011BFAE77047000067
:4008C00000000000000001000100010001000100010001000100020002000200020002000200020002000200020002000200030003000300030003000300030004000400BB
:400900000400040004000400050005000500050005000600060006000600070007000700080008000800090009000A000A000A000B000B000C000C000D000D000E000F00B4
:400940000F00100011001100120013001400150016001700180019001A001B001C001D001F0020002100230024002600280029002B002D002F0031003400360038003B0069
:400980003D0040004300460049004C004F00530057005B005F00630067006C00700075007B00800086008C00920098009F00A600AD00B500BD00C500CE00D700E100EB00FD
:4009C000F50000010B011701240130013E014C015B016A017A018B019C01AF01C201D601EA01000217022E02470261027C029802B502D402F402160339035D038303AB03E0
:400A0000D50300042D045D048E04C204F80430056B05A805E8052B067106BA0606075607A90700085B08B9081C098309EF09600AD50A500BD10B560CE20C740D0D0EAC0E38
:400A4000520F0010B510731138120713DF13C014AB15A116A117AD18C419E91A1A1C581DA51E00206B21E52271240E26BD278029562B412D422F5A318933D1353338B03A45
:400A8000493D0040D542CB45E2481C4C7A4FFF52AC56825A845EB3621267A26B66706075927A0080AA85958BC3913798F59EFEA558AD04B508BD66C524CE44D7CCE0C0EA52
:400AC00025F5FFFF004F00400C00405100403000F0510040100000000140001000140140000800400140000A004C0140000210500140100000500140B40D0048100043004B
:400B0000F8B500BFF8BC08BC9E4670474D00000049050000F8B500BFF8BC08BC9E46704729000000380B0000C880FF1F800000002800000000000000000000007F800000A3
:400B4000030000000000A08C401901004800000000A24A040000000000000000000000000000000000000000000000000000000000000000FE0A00000000000000000000AC
:400B800000000000000000000000000000000000000000000000000000000000000000000000000000000000000000000000000000000000E480FF1F0000000000000000B3
:400BC00000000000000000000000000000000000000000000000000000000000000000000000000000000000000000000000000000000000000000000000000000000000F5
:400C000000000000000000000000000000000000000000000000000000000000000000000000000000000000000000000000000000000000000000000000000000000000B4
:400C40000000000000000000000000000000000000000000000000000000000000000000000000000000000000000000000000000000000000000000000000000000000074
:400C80000000000000000000000000000000000000000000000000000000000000000000000000000000000000000000000000000000000000000000000000000000000034
:020000040003F7
:0200000480007A
:40000000024F004006520040015B00400364004002650040420001402E010140520201404A030140440401404705014026060140360701404C0801405B090140450A0140CC
:400040004F0B01404A0C0140540D0140380E0140340F0140341401404115014038160140411701402C180140461901400F1A0140491B01400940014016410140114201406F
:40008000094301400444014005450140084601400747014004480140074901400B4C0140174D0140065001400251014001400A4B00830182089A09A9601461842784830183
:4000C0008C728E0F860F883806011A02300236014040410349FF4AFF4BFF4DA04F0450185280580459045A045B045C225D115F01604062C06440654066C068C06AC06CC0FA
:400100006EC08A018C01900194019A019C01AC01B601C040C103C501C620C809C9FFCAFFCBFFCDAFCE0FCF04D018D280D804D904DA04DB04DC22DD11DF01E040E2C0E4408D
:40014000E540E6C0E8C0EAC0ECC0EEC0008804800520080109280B020C010D080E060F80115013421540188019401B431F8029402D30310832023304354036033706391430
:400180003B423D043E043F4242604301462047014F045620700177807F03C0C5C2FFC48BCA28CCD3CEDFD0C3040408040B021A021B021C041F01220126022C043001320297
:4001C00034043501370238203E104060410149FF4AFF4BFF4DA04F0450185280580459045A045B045C115D115F01604062C06440654066C068C06AC06CC06EC083018704DE
:4002000093049502AD02B104B301B502B920BF10C060C105C501C720C821C9FFCAFFCBFFCDAFCE0FCF04D018D602D736D804D904DA04DB0CDC12DD21DF01E040E2C0E44019
:40024000E540E6C0E8C0EAC0ECC0EEC001280610070809080A840B420F0A12021401168017041E401F2A2004210123102640270428023008320433023610378038023B04E6
:400280003F10460148024A104B104F10500252015A086004680469146B417120720A7680794086408A108B01900293069644974099409B809D20A404A528A602AC40AE045A
:4002C000AF80B202B302C066C2CFC4B1CA08CC33CE23D010D22CD602D804DE08E080E420020207010E01230230023102330134014030410449FF4AFF4BFF4DA04F04501856
:4003000052035302580459045A045B045C225D215F01604062C06440654066C068C06AC06CC06EC08D01910195019D01A501AB01AD01B101C030C104C721C830C9FFCAFF38
:40034000CBFFCDAFCE0FCF04D018D804D904DA04DC22DD01DF01E040E2C0E440E540E6C0E8C0EAC0ECC0EEC003410560068008040A440B020D080E4410011101120815039D
:40038000188019101AC41B102109220A2780280129502A022C042D202EA42F01310832023540360A388039043A203B023E40430645014704550157066809694087808801C6
:4003C0008C40911493029540968499609A0A9B459C02A408A508A602A704AC01AF28B149B520B708C0D9C27FC41BCA7DCCD3CE1FD0C3EA40EC40580459045C225F0182029F
:4004000083018508880189208B108F0491809340940297089A019B029D049E04A102A210A501A608A808A940AB80AC04AD10AF20B01FB7FFB802BE01BF40D804D904DC027A
:40044000DF010040012202180440055008500AA00C200D080E4010081144128015411AC01B012280281229522A1A2C082D41306831083210334135403602388039553B02B6
:400480003E403F2089088D1090809114930299509A0A9B41A108A202A310B402B510C0CFC27FC49FCABFCC9FCE3FEA04EE04000202010B0114011602240327012803320302
:4004C00037013F405401580459045B0E5C235D205F0180048101841F8501880789018A188D0192039301941C9601981C9A029E04A010A301A408A818AF02B102B301B41FED
:40050000BA20BF04C026C104C250C5BEC6FDC70CC81FC9FFCAFFCBFFCC22CEF0CF08D004D440D804D904DA04DB04DC33DF01E2C0E440E501E610E711E8C0E901EB11EC40E2
:40054000ED01EE40EF0102500304064009010A0A0B200E2010A1118013201620171018081A081B101E20220925402A402B802C402D402E082F0830023410358036023880D6
:4005800039153CA04004424046104708480149054A045120528053845A045B045C40612062887F20884089028D4090C49117924493229408970898109A689B319C029D456C
:4005C0009F08A0B3A206A360A440A501A631A710AB02AE01B101B310B780C01EC22FC46ECAF9CCB1CE3FD005D20CD610D80EDE40E040E420E840EA10EC02EE04009A010486
:400600000421050406D808FC0A030B040C9A0D041013110112641438155616C01709180219041D042160249826022802290A2A982B102C982D072E022F383013317F32E0D4
:40064000340F370839023A283F405409580459045B045F01820184048C018D018F029504980499069B019E02A004A404A904B204B307B603BB08BE04D608D804D904DB0423
:40068000DC09DD90DF01000401410208044908200A600B080E061002111415021708180419301A601B011C111F402241250C260C29112B012F0431083211334035203608DD
:4006C000388039153E40582059045A815C8062806640670284808B208E0290C09157920594149640978098109A289B719C029D609E409F08A0B3A280A342A440A505A63200
:40070000A7B1B008B440B620B708C0BFC2CEC437CA2DCC6FCE1FD61FD818E080E410E602E8A0EA5008050A0A0E1015011620180E1C031E04222023032C042E0931013230BF
:400740003302340F38223E054024410542064403460E470C481449FF4AFF4BFF4C624DA04EF04F41500C560257115804590E5A045B045C205D335F016640670269106A30BA
:400780006B106D106E106F12811D851D891D8D1D910D9310974099029B0DA102A368A902AB64AD21AF02B360B50FB710BB20BF40D804D904DC02DF010080022003800560F7
:4007C000081A0C040E280F02120216411D081E081F02200222142440260829202A012B012F40300232143608388039553C223E013F1042204304444045294C014D804F10B4
:40080000560857405C10640166406F1574A07510761277207F208604882089C08B088D048E019080911792049406964098109B409C6D9D109E12A012A120A280A4C0A504FA
:40084000A602A798B220B320C0CDC2EEC491CA8DCC47CE0FD0E0D230D620DE40E408ECA00106030104050506060A0701080209060A0D0D0810031107120C150819011B06B8
:400880001D04230124092508260629023107320F37083A083B023F4056025728580459045B045C305F01801F840C88049002941C960398139A0C9E13A00FA210A403A80168
:4008C000AC08B21CB40FBA20D804D904DC23DF01001403200402051106100A400B800C410D040E040F20110814241502160218101C201D201E0421012280284029102B2071
:400900002F88308031213304341836023720390A3A103B803C803E20450447045A805B406010680269156A807040C076C2F8C4F4CAA7CCEFCE3FD802070109021D03290375
:40094000350339203F104002450449FF4A074BFF4C404D204EF04F055008580459045A045C225D035F01604061A862406320862987018C188E2095019A029C189D019E2355
:40098000A206A301A418A625A701A816AA21B101B23CB607BA88BF01D804D904DC23DF01014004080602080109410A100C6010181302161817011D441F08200424402882D1
:4009C0002A142B082C082D402E0A2F103059314034123564370238083A803B243D823E903F26400448204B0850048080831091409320944896109708980299209A069B01F7
:400A00009C409E109F02A008A140A311A901AE33C0A1C2CDC47ECAFFCCFFCEFED004E404EC210303051406030920110913101580180C19501A031B0C1C011D4C1E0E1F1192
:400A4000220C2401251C2606274229102A08311F340F352037C039803A203F1040364104450B46E047C0482949FF4AFF4BFF4EF04F44500C5401580459045A045B045C3396
:400A80005D335F0166C06A406B02D804D904DC22DF010141040809400A900C400E04100813021510161017011E041F1025012709280229202B102D102F143008324234603E
:400AC0003608370138803D023E203F04446046104C044E084F0456225C405E215F088C408D208E0490809141928098029920A008A140A202A311AC20AD41AE0AB140B6406F
:400B0000C029C2CDC47ACA6ECCFBCEE8D0C0D220D6F0E80800100204030304020503080209040C040E18110412011503160219041A011D0321012202241C2703281C2B03C9
:400B40002C082D022E04310432013402361C370338203B203E045418580459045B045C335D305F01D804D904DC22DF0100800340040805400640070408520B040C040D201F
:400B80000FA0102011401502162217101D601F04240925012708284029042C042E022F113010310A33403540371939403D023E245C01640167088C228D0C914292049322D5
:400BC00098119A609B559C029D409F08A040A102A210A351A501A601AD80B040B301B620B748C0F9C27BC4F5CAF3CCFFCEE8D680D830E010E410E890580459045B045C22E7
:400C00005F018901B301BF04D608D804D904DB04DC22DD90DF0100040340040405040640074008100A020C700D020F0210401140122013041548271028402A402C602D40A4
:400C4000302031063201330135043620374139483B043C1049804A015C406580680169026A247010718073508040818083108750880189018A048C108E109010914093043A
:400C800099049B409C40A020A102A301A601A810B212C03CC2D3C4ADCAD9CCF7CE2AD610D810E00CE403EC2012801680311036103B023E80C430CC30CE60054009020E4043
:400CC000568057015B0264108410894297029D10A280A301A610AF01C080C230D440D660D880E640EE1057045901868097029E80A280A440AC40AE10AF02B510B640D4408A
:400D0000D640E240E840EE501B04A280A440A704A901AB01C610EA20EE2075087880DC01DE04531085089C809D08D4041B04241084109C80B310C608C801E80444019C100A
:400D4000AB04AC80B410D004EA082502A280A440C88000808280A280A440B102C040E4205108572058405B085F42612066089C11D407D607D8031010722082208302860858
:400D80008708884089088B408D208F2097409C509E089F0AA528A720B001C408DC01E007E406EC04100C110112141A0C1C0C1D01000F100A0F01140000000000060006004A
:400DC0000D010D0038C0C000C0030300800040BCBC00B4000000000000FFFF00FF0000000001010001000000043838000800000000010000000000000000000000000000F1
:400E000000000000000000000000000000000000000000000000000000000000000000000000000000000000000000000000000000000000000000000000000000000000B2
:400E40000000000000000000000000000000000000000000000000000000000000000000000000000000000000000000000000000000000000000000000000000000000072
:400E80000000000000000000000000000000000000000000000000000000000000000000000000000000000000000000000000000000000000000000000000000000000032
:400EC00000000000000000000000000000000000000000000000000000000000000000000000000000000000000000000000000000000000000000000000000000000000F2
:0200000490006A
:0400000000004007B5
:0200000490105A
:04000000BC90ACAF55
:0200000490303A
:02000000DE928E
:0200000490402A
:4000000000000000000000000000000000000000000000000000000000000000000000000000000000000000000000000000000000000000000000000000000000000000C0
:400040000000000000000000000000000000000000000000000000000000000000000000000000000000000000000000000000000000000000000000000000000000000080
:400080000000000000000000000000000000000000000000000000000000000000000000000000000000000000000000000000000000000000000000000000000000000040
:4000C0000000000000000000000000000000000000000000000000000000000000000000000000000000000000000000000000000000000000000000000000000000000000
:0200000490501A
:0C00000000012E16106900012E1DEEFB01
:00000001FF