:400000000080002011000000D5030000D503000008B5044B1A6803F53F5302331A6000F0E1F900BFFA46004010B5054C237833B9044B13B10448AFF300800123237010BDED
:400040004881FF1F0000000038060000084B10B51BB108490848AFF300800848036803B910BD074B002BFBD0BDE81040184700BF000000004C81FF1F38060000C880FF1F86
:400080000000000008B500F009FA064B1B78984205D0044B1870003018BF012008BD002008BD00BF6481FF1F08B562B6FFF7EAFF0028FBD000F02EFAB0FA80F0400900F080
:4000C0001DFA00F013FAB0FA80F0400900F002FA00F0F8F9B0FA80F0400900F0E7F9642000F038FAE2E700BFFEE700BFF0B40022174611E050F82760F3B226F0FF0608E02C
:4001000001EB420511F812406D78A5550132013BDBB2002BF4D101372A2FEBD9F0BC704738B500242E4B1C80582202331A70082202331A8018232B4A13702C210232118011
:40014000023213704D21023211800232137043F63F0102321180023213700622224B1A705222A3F580731A70204B1B78DBB2204A13704FF4E3621F4B1A8042F25122023B59
:400180001A8019250CE01C4B1B7803F0010343EA440404F003044FF4F07000F0FDF9013D0DB1032CEFD115B90320FFF79DFF134A4FF48073138007231370002310490B7059
:4001C00048200231087013700532137002220D4B1A700D4A137843F01F03137038BD00BF8040004086400040004300400F010049A146004022420040254200400440004063
:400200000640004001400040A243004008B50A46002100F008FA08BDF8B5164B1B78DBB2154E3478E4B2154F3D78EDB203F00701134A11701B090132137044F00303337092
:4002400045F003033B7003220E4B1A7040230E4A13700232137030220C4B1A70202203331A700A2000F08CF93D7034704422084B1A70F8BDCF010049F8460040F946004068
:400280006E5800400D51004001590040205B00407658004008B500F0BBF908BD38B572B66122384B1A70FFF73BFF00240CE0364D630019194A0011462A440846918828581E
:4002C000FFF7A4FF0134E4B2082CF0D900240CE02D48A20011194B000344B3F84020D96B986BFFF7D7FF0134E4B2012CF0D927494FF09040FFF7FAFE04212548FFF786FF61
:40030000042224492448FFF7C5FF244A137843F0020313701032137843F002031370204C237843F040032370A2F58632513A137843F01003137008221A491B48FFF7AAFFFB
:400340000A221A491A48FFF7A5FF082219491A48FFF7A0FF082219491948FFF79BFF082218491948FFF796FF184A137843F008031370FFF751FF0E2221461548FFF78AFF14
:4003800038BD00BF004800403C060000AC00004800760040A40C00480876004003500140A0430040780C004802510040800C0048C05100408C0C004812510040940C0048B9
:4003C000225100409C0C00483251004022430040B043004008B500F0EFF803680C2B00D1FEE7FEE708B5104E104D16E029686B68AC68002204E051F8040B43F8040B04322A
:40040000A242F8D1E868002203E0002143F8041B04328242F9D11035013E002EE6D100F0D1F8FFF741FEFEE701000000B006000008B5114A114B1A60114A136843F400731A
:40044000136000230AE0032B03D80E4A52F8231000E00D490D4A42F8231001332F2BF2D90B4B1A780B4B1A70084A0B4B1A60FFF715FF00F055F808BD0004FA050CED00E0F9
:4004800014ED00E000000000D50300000080FF1FBC760040C080FF1F08ED00E0024B1878C0F34010704700BF01510040044A137803F0BF03800100F0400018431070704787
:4004C00000510040024B1878C0F38010704700BF01510040044A137803F0FE0300F0010018431070704700BF20510040024B187800F00100704700BF21510040044A1378B4
:4005000003F07F03C001C0B218431070704700BF00510040014B1878C0097047015100400B4A7F2313708021517007E0DA0002F1804202F5F042013BDBB21370002BF5D18B
:40054000DB0003F1804303F5F04300221A707047CC80FF1F10B5044605E0084B186800F01BF8A4F50044B4F5004FF6D8034B586800FB04F000F010F810BD00BFD480FF1F91
:4005800008B5034B1B7A00FB03F000F005F808BDD480FF1F000000000230800803D000BF01380046FCD17047EFF3108072B6704780F31088704700BF014B1868704700BF26
:4005C0004481FF1F0E4B70B51E460E4C0025E41AA410A54204D056F8253098470135F8E700F054F8084B094C1E46E41AA4100025A54204D056F8253098470135F8E770BD15
:40060000980600009806000098060000A006000010B5431E0A44914204D011F8014B03F8014FF8E710BD03460244934202D003F8011BFAE77047000000000000004F00405F
:400640000C00405100403000F0510040100000000140001000140140800200170140000500400140000A004C01400002105001401000000080160140E80B004880000050AA
:400680000140680C0048100043000000F8B500BFF8BC08BC9E4670474D00000031040000F8B500BFF8BC08BC9E46704729000000C0060000C880FF1F800000002000000075
:4006C000000000007F800000030000000000A08C401901004800000000A24A04000000000000000000000000000000000000000000000000000000000000000088060000AC
:40070000000000000000000000000000000000000000000000000000000000000000000000000000000000000000000000000000000000000000000000000000E480FF1F37
:400740000000000000000000000000000000000000000000000000000000000000000000000000000000000000000000000000000000000000000000000000000000000079
:400780000000000000000000000000000000000000000000000000000000000000000000000000000000000000000000000000000000000000000000000000000000000039
:4007C00000000000000000000000000000000000000000000000000000000000000000000000000000000000000000000000000000000000000000000000000000000000F9
:4008000000000000000000000000000000000000000000000000000000000000000000000000000000000000000000000000000000000000000000000000000000000000B8
:020000040003F7
:0200000480007A
:40000000024F004007520040015B004002640040036500401F000140270101402E020140410301402C040140390501403C06014048070140470801403C090140320A014057
:40004000390B01401B0C0140360D0140170E0140290F0140361401404A1501400B160140481701404818014039190140551A0140481B0140084001400B41014009420140D9
:4000800005430140064401400F4501400E460140124701400248014001490140134C01400D4D0140065001400251014001400A4B000208A9093310101118609061A427847E
:4000C0008301870F853887728B0F02080301061108100E20100413041A021E04240827022802303E330234013501370438023E0152035302580459045B045C225D205F0164
:40010000D804D904DC22DF010125030205220640070208200A870B100F54118012481344172018081922200822DC232628202A402D20325535023688380839013B503D80D0
:400140003F1469506A508240C0DFC27FC44FCA2ACCDFCE7FE0041B013701580459045C225F018004850E860489108A088C018D048F099202944095059680970A99039A01D7
:400180009B049C02A010A220A408A820AA10AC80AD10AE40B0FFB110B50FB922BA80BE01BF01D602D73DD804D904DB0CDC03DD20DF0100A8012102140502070409100A89DD
:4001C0000BBC0E800F14100A11041280132016141B8220042202254026C028022F5431083220340836803724384439103C285A106202680A69056B017205794084408604F3
:400200008710915092989505960597109920A004A540A702AA40B102B304C05FC27FC46FCAE8CC76CE6ED604D801DE08E402EA04EC03EE08004004110622070209080B3416
:400240000C8D10421208146215141614172B190D1A801B301C021E0D208D248D288D2C0D2D242E802F1B3070333C34803503360F3A823B083E105440580459045B045F01EC
:40028000A201B401D804D904DC22DF01008002A0040405020610070209080A420B080C010E0410AA14081620170118401A421B111E041F10220823142B012D222F50310887
:4002C000322034083B143C043DA061606320870493809440972099209A109B039C0A9D02A150A380A508A620B120B302C0BDC25FC47FCAE8CC46CE76D80EE002EE06540942
:40030000580459045B045C225F018184850A871089808B048D568F0991049380950199079B389D04A184A584AD60B108B37FB502B780B908BF51C034C106C250C5CEC6FB11
:40034000C70DC81FC9FFCAFFCBFFCC22CEF0CF08D004D602D728D904DA04DB04DF01E2C0E440E501E610E711E8C0E901EB11EC40ED01EE40EF01052007400E040F801448F6
:40038000162020022204238A2A4A2C402D202F403002326434083740384039293DA03E243F804040410442084310480549014A804B045120524053045D105F866208658016
:4003C000686A69656B10708072028A04904092049380970899209C089E20A150A208A381A4EAA528A6A0AD40AF04B001B140B402C050C250C470CAABCC5FCE7FD003D20C71
:40040000D6F0D812EE040A0219031A021D03210227012E0134013503360239203F104020410649FF4AFF4BFF4DA04F0450185280580459045A045B045C215D115F01604092
:4004400062C06440654066C068C06AC06CC06EC092019A02A602B201B402C020C106C501C702C811C9FFCAFFCBFFCDAFCE0FCF04D018D280D804D904DA04DB04DC21DD11CE
:40048000DF01E040E2C0E440E540E6C0E8C0EAC0ECC0EEC0041009220F0810201740181019201D201E02270429082A802D402E082F483188330135083680371139603D1036
:4004C0003E803F044120452048204A084E085208710277408201881089208E40917094109B019D089E80A010A180A304B102B204B301C040C24AC484CAFACCFBCE7CD02459
:40050000D224E080E401EA10EC20EE044030410249FF4AFF4BFF4DA04F045018580459045A045C225D015F01604062C06440654066C068C06AC06CC06EC0C030C102C501A9
:40054000C620C809C9FFCAFFCBFFCDAFCE0FCF04D018D804D904DA04DC22DD01DF01E040E2C0E440E540E6C0E8C0EAC0ECC0EEC0018805080680081009020B100C400D8072
:400580000E040F101040110414101540160229882A802C402E84301031823402350839203A023B103D14401041204304452047044F085520913498129A029E809F01A01017
:4005C000A180A840AB80AF02B180B308B640B710C035C2EEC4ACCADACCCDCE65D066E002E82100010E0118011C01200126012C0136015401580459045B0E5C225D205F0103
:40060000830189018D01910199019D01A901B701D804D904DC22DF01010C034906C2080209200DB01240141017411F8023022B082C102E802F0830103341350837413920A2
:400640003A823D105E407D0884129080913099089A029B509C109E809F01A010A104A708A980AB50AE80AF40B002B118B202B610C09FC2CAC4B8CA74CCDDCE2DD610DE40CE
:40068000E880EC20580459045B045C225F0192019501A303A801AE02B003B301B502B603B980BF40D608D804D90EDB04DC29DD90DF010108034908100E801150140217102E
:4006C0001E801F802680271828102F8031803309370839703A825F40640268126A217041710472047D088001810486058D04C00FC212C4C3CA82CC4BCE0DD610D810DE40BF
:40070000E00AE404007F01FF063107B309040C460D030E39102011F3130C1410150C184719011A381C791D081E062004214F23902402254C27A328062B402C302D42303014
:40074000318C3240337C34073608370F38803B8A3E04580459045C335F019F01AF01B301BF04D418D804D904DB04DC22DD30DF010044010102010380052007800811098025
:400780000A2A0E040FA0108411401212132014481996204221802204250828112A012B042C602DA0308432113684382439413A103E043FA0450846205D02662067028350F5
:4007C00088608B808C088E449024922493029640984199209B209C089D149F80A080A282A3D4A401A604AB04AC20AF80C05DC27FC45FCAFFCC5FCE7FD680D830E004E4016D
:40080000EC20EE040A01120130013E015608580459045B045C205D905F01001002020312051008010A100D01100218151A201B021F012008210C22602A022B012D202F40DD
:4008400031093260360437C039653DA03E043F204025480149105101528059045E40640168026A106B1070907320840191659204938095089680984099219A029C089F405A
:40088000A150A3C1A404A508A620AD10AE80B180B204B308C047C21CC401CAA9CC5FCE7FD00ED20CD612D810E0020106020C030104410630070108020B060C4013031424E7
:4008C00016401B051C701E092031224423022A802C502D08307C320333083480370738083B803F044003454049FF4A074BFF4C404D204EF04F055008580459045A045C3318
:400900005D035F01604061A862406320C020C103C9FFCAFFCBFFCDA0CF04D018D804D904DA04DC22DD01DF01E040E2C0E440E540E6C0E8C0EAC0ECC0EEC0011802020480B1
:40094000050106080710080209A00E111140160217211D011E5826882701280229082A802D022E4031A03202371139603E194004410447044C404D02560887209170930444
:40098000968097809B049D089E889F10A180A202A680B108B202B304B580B708C0F7C2ABC4D1CA9ACCADCEECD046EC20060212012602300234014020410345014702481146
:4009C00049FF4AFF4BFF4DAF4E0F4F0450185280580459045A045B045C215D115F01604062C06440654066C068C06AC06CC06EC082088421860687058B088C1091039304F7
:400A0000960C99039B0C9C0C9E23A021A10AA20EA304A620A903AA23AB04B020B30FB410B60FBA80BB08BE11C026C104C5E0C6C0C7B0C82AC9FFCAFFCBFFCEF0CF44D00C89
:400A4000D401D804D904DA04DB04DC33DD33DF01E6C0EA40EB02000404800502071009020E111020142015101628170118041A801E491F402710280229082E202F4031A024
:400A8000371139603B043E1840044104471148204C404D11510456225C205D015E4871028002812089188D40916092109304940495089681978099029A089B019C029D0893
:400AC0009E029F10A180A520AA0CC0B4C2A8C474CAAACCACCE6ED0A6D220D6F0E080E240E660E804EC201220168030803B023E80C430CC10CE60531057809702A301A880CF
:400B0000AE20AF01D460EA20EC40EE10530863029702A301AB80AF10D420D640EE601B08A708AB01C610EE207D80820486508F02DE04E0085812652093029A509B02A204C9
:400B4000A302A540B302B701D401D602D801E802EC011B042410854093029A509B029C129D20A206A302A540AA02C608C80144018120885089208C0293029A509B029C124E
:400B80009D20A206A302AB04B410D004E00DE401EA082502C880B10251205301564057025B025E0862026610930298409A509B029C01A120A206A302D407D607D8031080EB
:400BC000762078408C8098409A20AA20B001C408DC01DE04E602EC04100F110112141A0D1B011C0E0003100A009A00009F9800020A02519801982602140249009F2100D8CA
:400C000000130064003800C0009A0000000000000000000080FC00030700180F801360E000000088000040005203060001000EC024FFFFFF62A0F0410C00000000000212C5
:400C4000040404040333000100000000000040020010301000101012000000000000000000000000000000000F011400000000000D0005000600040120C0C0000003030082
:400C8000800040BCBC00B4000000000000FFFF00FF000000003939003800000000383800080000000001000000000000000000000000000000000000000000000000000028
:400CC00000000000000000000000000000000000000000000000000000000000000000000000000000000000000000000000000000000000000000000000000000000000F4
:400D000000000000000000000000000000000000000000000000000000000000000000000000000000000000000000000000000000000000000000000000000000000000B3
:400D40000000000000000000000000000000000000000000000000000000000000000000000000000000000000000000000000000000000000000000000000000000000073
:400D80000000000000000000000000000000000000000000000000000000000000000000000000000000000000000000000000000000000000000000000000000000000033
:0200000490006A
:0400000000004007B5
:0200000490105A
:04000000BC90ACAF55
:0200000490303A
:020000002BD300
:0200000490402A
:4000000000000000000000000000000000000000000000000000000000000000000000000000000000000000000000000000000000000000000000000000000000000000C0
:400040000000000000000000000000000000000000000000000000000000000000000000000000000000000000000000000000000000000000000000000000000000000080
:400080000000000000000000000000000000000000000000000000000000000000000000000000000000000000000000000000000000000000000000000000000000000040
:4000C0000000000000000000000000000000000000000000000000000000000000000000000000000000000000000000000000000000000000000000000000000000000000
:0200000490501A
:0C00000000012E16106900012E1C3C3C73
:00000001FF