:4000000000800020110000009D1000009D10000008B5044B1A6803F53F5302331A6001F045F800BFFA46004010B5054C237833B9044B13B10448AFF300800123237010BDDF
:400040005882FF1F0000000014230000084B10B51BB108490848AFF300800848036803B910BD074B002BFBD0BDE81040184700BF000000005C82FF1F14230000C880FF1F72
:400080000000000008B5002001F0CEFA08BD00BF684620F007018D4619B572B6EFF311841E4B1B68DBB20F2B10D9103B23F0030202F1604202F564421168DB0003F018038D
:4000C000E0229A400A4022FA03F306E00F2B03D1134B1B681B0E00E0002383F31188114A136801331360012B01D101F023FF62B6FFF7C8FF72B684F3118801F0D5FC094A08
:400100001368013B13601BB901F01DFF01F0E1FE62B6BDE819408546704700BF04ED00E020ED00E0F89CFF1F08B562B6054A064B1A60064A136843F002031360002001F0A7
:40014000E5FDFBE73F19010014E000E010E000E008B501F07BF801F03FFE074A136843F005031360022001F09DF8012001F09AF801F014FE08BD00BF10E000E000BFFDE7AF
:4001800000B583B00120314B187001F08FFB01A9022001F0D1FA019801F09EFA2B4B1B782BB3012BFAD1019B13F0010306D0284A12781AB9274801F063F8EFE73BB1244AFC
:4001C0001278012A03D1244801F05AF8E6E753B11F4B1B78032B06D1204801F051F800221A4B1A70DAE7002000F098FDD6E7019B13F0010307D0164A1278052A03D1184857
:4002000001F03EF8CAE73BB1114A1278062A03D1144801F035F8C1E753B10D4A1278042A06D1114801F02CF80122084B1A70B5E73BB1074B1B78022B03D10C4801F020F8CC
:40024000ACE7022000F06AFDA8E700BF4C89FF1F4D89FF1F1823000024230000342300004023000054230000682300007423000008B5002000F028FD60B11D4B1B78012B3E
:4002800001D1002200E005221A4B1A700121022001F07AFA012000F017FD60B1144B1B78012B01D1012200E00622124B1A700121022001F069FA022000F006FD60B10C4B5E
:4002C0001B78012B01D1032200E00422094B1A700121022001F058FA032000F0F5FC28B10220044B1870012101F04EFA08BD00BF4C89FF1F4D89FF1F684620F007018D46A8
:4003000019B572B6EFF311841E4B1B68DBB20F2B10D9103B23F0030202F1604202F564421168DB0003F01803E0229A400A4022FA03F306E00F2B03D1134B1B681B0E00E0A7
:40034000002383F31188114A136801331360012B01D101F0EFFD62B6FFF78AFF72B684F3118801F0A1FB094A1368013B13601BB901F0E9FD01F0ADFD62B6BDE819408546F3
:40038000704700BF04ED00E020ED00E0F89CFF1F00B583B001A801F01FFB0198013003B05DF804FB014B1868704700BF041000E001300E4B184003D5013860F0010001303F
:4003C000002308E00130094B184003D5013860F0010001300B46064A32F8302012B1591C012BEFDD0AB14FF0FF30704701000080DC9CFF1F294B9B68013B692B4AD8DFE810
:4004000003F03F4143454749494949494949494949494949494949494949494949494949494949494949494949494949494949494949494949494949494949494949494939
:400440004949494949494949494949494949494949494949494949494949494949494949494949494949354B37393B3D0C4870470C4870470C4870470C4870470C48704707
:400480000C4870470C4870470C4870470C4870470C487047002070470B4870477482FF1F84230000F0230000242400005024000084240000B8240000E424000014250000D5
:4004C0004025000074250000BC23000070B4EFF31086012383F310881E4B1D6A002207E022F003031B4C23445B6A834203D02032AA42F5D32A46B2F5A06F22D2154B22F083
:4005000003041C446062141D24331C44002304E0C85CE054C85C20B10133182BF8D900E00133C85C08B17F2BFAD90A4909698B4201D908490B61AA4207D12035054B1D628F
:4005400003E0044AD3680133D36086F3108870BC704700BF7482FF1FF0B4EFF31086012383F31088164BD3F82455002308E023F00302134C2244D2F82825824203D008331D
:40058000AB42F4D32B46B3F5A07F11D29C080C4A02EB8407C7F82805013402EB8402C2F82815AB4208D10835054BC3F8245503E0034A53690133536186F31088F0BC7047A0
:4005C0007482FF1F10B50446274BD868B0F1FF3F0ED1FFF7EDFE244BD860B0F1FF3F07D1224AD2F868360133C2F86836002010BD1D4BD8681E4B03EBC0035B881B1B002BD6
:400600001EDA1B4B022223F8302003EBC0035988154A13685B1A13601269934201D2124A1361FFF7C5FE104BD860B0F1FF3F07D10E4AD2F868360133C2F86836002010BD4A
:40064000094AD1680A4B03EBC1035868011959605988091B5980A4B213681C1B146013699C4200D2146110BDCC80FF1F7482FF1FDC9CFF1F10B5EFF31084012383F310880B
:400680000C4BDB699BB11420FFF79CFF78B10A4A02600422828041F6A122C28000228260202282812822C28108210182428284F3108810BD7482FF1F0046535070B5EFF325
:4006C0001086012383F310880F4BDB69A3B917E02020FFF777FF054648B90BE0E1180A4A02EB8102526A45F82320013300E00023072BF3D9083400E00024B4F5A07FE7D36E
:4007000086F3108870BD00BF7482FF1F70B5EFF31086012383F310880F4BDB69ABB917E00820FFF74FFF054650B90CE0E1180A4A02EB8102D2F8282545F82320013300E0CC
:400740000023012BF2D9023400E000244F2CE7D986F3108870BD00BF7482FF1F2DE9F84F002400E001340B5D0BB1332CFADD261D00D50336B61018B94FF0900A002302E023
:400780004FF0910A01239F001E440F2E0ADD0F3EB600244B9B699E4201D9224B9E61C7F13C040F26EFF31088012383F310881D4BDB699BB30D468346B01C1A4AD2F86C36EF
:4007C0000133C2F86C368000FFF7FCFE814628B33603B6B24AEA060AA0F800A0114BB3F86C364380FFF7DEFDC9F80400BBF1000F01D0C9F808B009F10809002304E0DA192E
:40080000E95C09F8021001339C42F8DCC7F13C039C4203DA3C44002309F8043088F31088BDE8F88F7482FF1F08B5FFF797FF08BD08B5064BDB693BB1FFF7DCFD014618B172
:40084000034B1868FFF7F0FF08BD00BF7482FF1FD89CFF1F30B40F4B1860EFF31085012383F3108800230EE00B4901EBC30040F6C4124280074C246802FB03424260002275
:4008800021F833200133012BEEDD85F3108830BC704700BF7482FF1FDC9CFF1F1C4BDB69834234D070B50446FFF772FD0546EFF31086012383F31088154BDC6100B90225CB
:4008C00014B3144C2046FFF7C5FF2046FFF7C2FF0F4C0023C4F86C36FF220F4B1A75FFF7C9FEFFF7EBFEFFF711FFD4F87016D4F874365A1CC4F874262A46012000F04CF9B2
:4009000000F0C6F9FFF794FF86F3108870BD70477482FF1F5089FF1FCC80FF1F08B5084B9B685BB9064B9860FFF782FF0549064B186800F07FF80020FFF7B0FF08BD00BF5F
:400940007482FF1FA8250000D89CFF1F2DE9F84F0B9FB1F5805F04D30120FFF7DFFFBDE8F88F05468A4690461E461C1D00D50334A410B8F1000F00D001354FEA85092C443D
:400980000F2C0ADD0F3CA400294B9B699C4201D9274B9C61C9F13C060F24EFF3108B012383F31088224BDB69002B3DD0A01C204AD2F86C360133C2F86C368000FFF702FE28
:4009C00090B32403A4B24AEA040AA0F800A0184BB3F86C3604464380FFF7E4FC21466060083100230DE0B8F1000F03D013B941F8238005E03A68101D3860126841F8232045
:400A000001339D42EFDC002305E003EB09020A98C05C885401339E42F7DCC9F13C039E4202DA4E4400238B558BF31088BDE8F88F7482FF1F0EB470B585B0099D0026334655
:400A400009E0252906D10134295D11B1252900D00136013301331C46E95C09B1332BF0DD0AAA039250B106F1910103AA01920095024689B23046FFF769FF09E006F1900132
:400A800003AA01920095024689B23046FFF75EFF05B0BDE8704003B0704700BF0CB430B585B0089C002300E00133E25C0AB1332BFADD04AA09AD42F8045D019200940022B7
:400AC000FFF744FF05B0BDE8304002B0704700BFF8B5B0F5805F03D30120FFF71FFFF8BD04460E46EFF31085012383F310880E4BDB69ABB10C4AD2F86C360133C2F86C3648
:400B00000C20FFF75FFD074650B144F480540480054BB3F86C364380FFF744FC7860BE6085F31088F8BD00BF7482FF1F2DE9F041B0F5805F04D30120FFF7F0FEBDE8F08178
:400B400004460F461646EFF31085012383F31088104BDB69CBB10F4AD2F86C360133C2F86C361020FFF72EFD804670B144F400540480084BB3F86C364380FFF713FCC8F8F1
:400B80000400C8F80870C8F80C6085F31088BDE8F08100BF7482FF1F2DE9F843B0F5805F04D30120FFF7BAFEBDE8F8830446884617461E46EFF31085012383F31088114B5B
:400BC000DB69DBB10F4AD2F86C360133C2F86C361420FFF7F7FC814680B144F440540480084BB3F86C364380FFF7DCFBC9F80400C9F80880C9F80C70C9F8106085F31088AF
:400C0000BDE8F8837482FF1F0EB4F0B582B0BDF81C70B7F5805F03D30120FFF77FFE2FE00446EFF31086012383F31088174BDB6923B30230154AD2F86C360133C2F86C36A5
:400C40008000FFF7BFFC0546C0B123039BB21F4307800E4BB3F86C364380FFF7A3FB686008AB0193002307E0019A111D019111689A1C45F822100133A342F5DB86F3108822
:400C800002B0BDE8F04003B0704700BF7482FF1F00B583B00A4B5B6813B90A4A084B5A60074B5A6800230193012300934FF47A7302210420FFF7A8FF03B05DF804FB00BFE7
:400CC0007482FF1F00A24A0408B503281BD8DFE800F002080E1400F045FA012815D0002008BD00F047FA012811D0002008BD00F049FA01280DD0002008BD00F04BFA012874
:400D000009D0002008BD002008BD012008BD012008BD012008BD012008BD00BF10B5032838D8DFE800F002101E321C4B1B5C012B01D1002300E00123184A1354184600F086
:400D400031FA002010BD154B1B5C012B01D1002300E00123114A1354184600F02FFA002010BD0E4B1B5C012B01D1002300E001230A4A1354184600F02DFA002010BD2046C1
:400D8000FFF7CCFF0134E4B200E00024022CF6D9002010BD6FF0130010BD00BF1089FF1FFEE700BFF0B40022174611E050F82760F3B226F0FF0608E001EB420511F8124047
:400DC0006D78A5550132013BDBB2002BF4D101372B2FEBD9F0BC704738B500242E4B1C80582202331A70082202331A8018232B4A13702C2102321180023213704D21023279
:400E000011800232137043F63F0102321180023213700622224B1A705222A3F580731A70204B1B78DBB2204A13704FF4E3621F4B1A8042F25122023B1A8019250CE01C4BBA
:400E40001B7803F0010343EA440404F003044FF4F07001F0F5F8013D0DB1032CEFD115B90320FFF79DFF134A4FF48073138007231370002310490B70482002310870137029
:400E80000532137002220D4B1A700D4A137843F01F03137038BD00BF8040004086400040004300400F010049A1460040224200402542004004400040064000400140004025
:400EC000A243004008B50A46002101F01AFA08BDF8B5164B1B78DBB2154E3478E4B2154F3D78EDB203F00701134A11701B090132137044F00303337045F003033B700322AF
:400F00000E4B1A7040230E4A13700232137030220C4B1A70202203331A700A2000F0AAFF3D7034704422084B1A70F8BDCF010049F8460040F94600406E5800400D510040DE
:400F400001590040205B00407658004008B501F0CDF908BD38B572B661223A4B1A70FFF73BFF00240CE0384D630019194A0011462A44084691882858FFF7A4FF0134E4B27A
:400F8000072CF0D900240BE02F48A20011194B0003441A8F596B186BFFF7D8FF0134E4B2012CF1D929494FF09040FFF7FBFE04212748FFF787FF042226492748FFF7C6FF93
:400FC000264A137843F0020313701032137843F002031370224C237843F040032370A2F58632513A137843F01003137008221D491D48FFF7ABFF0A221C491D48FFF7A6FF4D
:401000000A221C491C48FFF7A1FF08221B491C48FFF79CFF08221B491B48FFF797FF08221A491B48FFF792FF1A4A137843F008031370FFF74DFF0E2221461748FFF786FF4B
:4010400038BD00BF00480040CC250000B000004800760040380D00480876004003500140A0430040000D004802510040080D0048C0510040140D0048F0510040200D00489E
:4010800012510040280D004822510040300D00483251004022430040B043004008B501F0F9F803680C2B00D1FEE7FEE708B5104E104D16E029686B68AC68002204E051F82C
:4010C000040B43F8040B0432A242F8D1E868002203E0002143F8041B04328242F9D11035013E002EE6D101F0DBF8FFF71DF8FEE7010000001C28000008B5114A114B1A60D0
:40110000114A136843F40073136000230AE0032B03D80E4A52F8231000E00D490D4A42F8231001332F2BF2D90B4B1A780B4B1A70084A0B4B1A60FFF70DFF00F07FFE08BD60
:401140000004FA050CED00E014ED00E0000000009D1000000080FF1FBC760040C080FF1F08ED00E0024B1878C0F3C000704700BF01510040024B1878C0F30010704700BF54
:4011800001510040024B1878C0F34010704700BF01510040024B1878C0F38000704700BF31510040044A137803F0BF03800100F0400018431070704700510040044A137832
:4011C00003F0FE0300F0010018431070704700BF20510040044A137803F07F03C001C0B218431070704700BF005100407222084B1A70202203F580731A700622653B1A702B
:40120000472210331A70002250331A70704700BF8B64004010B500F01BFF04460A4A137843F02003137002F58072137843F010031370053A137843F01003137000F0F0FD26
:40124000204600F009FF10BD9B64004008B5054B1B7823B9FFF7CAFF0122024B1A70FFF7D9FF08BD1389FF1F034B1B7813F0040FFAD1024B1870704766650040456500403F
:4012800038B5074B1B782BB938BDFFF7EDFF0134A4B201E005460024285D0028F5D138BD1389FF1F38B5EFF3108572B602284ED82D4B53F82030002B4BD02B4A013B42F884
:4012C00020302A4B53F82030032B07D10222274B43F820200022264B43F8202000F054FC244B1B68002B36D1234B1C6800F02AFCB0F1FF3F31D0214B53F82020204B1B6838
:401300009A422CD9B4F1FF3F03D00221174A42F824101C4A52F820201343194A13600022124B43F8202000F0C9FB174B53F820304BB10024144B43F8204040F0004000F0E3
:401340000BFE20460CE000F007FE002008E0032006E0042004E0002002E0002000E0002085F3108838BD00BF1481FF1FB081FF1F3089FF1FF89CFF1FA081FF1F78270000B5
:401380004489FF1F682700001889FF1F18B108B5C368984708BD704708B508B1406800E00020022816D80C4B53F8203093B10A4A013B42F82030094B53F82030032B07D16D
:4013C0000222064B43F820200022054B43F8202000F0DAFB08BD00BF1481FF1FB081FF1F3089FF1F18B1034640689B6801E00023184602281DD80F4A52F82020CAB10E4AFA
:4014000052F82010032914D010B50C4C54F820201A4344F820200A4A52F82020134207D0012905D10222044B43F8202000F0ACFB10BD704750270000B081FF1F3089FF1FF0
:401440002489FF1F80B108B50378012B06D013B1032B06D008BDFFF79FFF08BDFFF7C2FF08BDFFF793FF08BD704700BF30B400EB40029300214AD258214B03EBC2035C68F5
:40148000B4F1FF3F04D11E4B03EBC20250602DE01C4B03EB04139B6899420AD2184D05EBC2025060174A02EB04125B1A93601DE01C46144B03EB04139A68891ADB68B3F192
:4014C000FF3F05D00F4A02EB031292689142EFD2B3F1FF3F05D00B4A02EB031295686D1A9560084A02EB0414E0601C46054B03EB00108160C46030BC704700BF3027000064
:40150000E880FF1F00A1FF1F38B5414A02EBC0035C6852F83030013342F8303000EB40018A003C498A58934203D90022384B43F83020B4F1FF3F6AD0374B03EB04139B685D
:40154000002B5FD1214600E01946334B03EB0113DB68B3F1FF3F05D02F4A02EB03129268002AF1D02C4A02EB01114FF0FF32CA60274A02EBC0004360B3F1FF3F07D0264A97
:4015800002EB03139A68013A9A6000E02C4604EB44029300214A13441B7A03BB04EB440293001E4A134459681D4B53F8215005EB850293001B4AD35C53B905EB85029300A2
:4015C000184A13445A6801320A31AA20FFF7AEFA05EB8505AB0013481844FFF733FF0E4B03EB0413DD68596821B101392046FFF73DFF03E024010022074B1A51B5F1FF3FC3
:40160000C4D138BD044A02EB0414013BA36038BDE880FF1F4427000000A1FF1F30270000402700001C27000038B5EFF3108572B6002838D1FFF768FF204B1B68002B34D1B0
:401640001F4B1C6800F07EFAB0F1FF3F2FD01D4B53F820201C4B1B689A422AD9B4F1FF3F03D00221194A42F82410194A52F820201343154A13600022144B43F8202000F0CF
:401680001DFA144B53F820304BB10024114B43F8204040F0004000F05FFC20460AE000F05BFC002006E0032004E0002002E0002000E0002085F3108838BD00BFF89CFF1F0B
:4016C000A081FF1F782700004489FF1FB081FF1F682700001889FF1F70B50546EFF3108672B6114B1C680246611CCB20FFF71EFA0E4B1B687BB9B4F1FF3F0ED00C4B53F863
:40170000243063B10B4A52F8243023EA050542F82450002004E0022002E0022000E0012086F3108870BD00BFA081FF1FF89CFF1F502700003089FF1F10B502280FD80F4BF2
:4017400053F820306BB10E4B53F82030032B0AD059B10C4B53F820300B60002406E0032404E0012402E0072400E00E240A68411CCA20FFF7DBF9204610BD00BF502700000A
:40178000B081FF1F3089FF1F70B504460D46EFF3108672B63B4B1B682BB90A46411CC920FFF7C4F904E00A46411CD020FFF790F9022C54D8344B53F82430002B51D0334B29
:4017C00053F82430032B4ED0314951F824202A4341F824202F4A52F82420154245D0012B45D10222294B43F82420204600F0CCF9244B1B68002B3CD1274B1C6800F0A2F97B
:40180000B0F1FF3F37D0254B53F82020244B1B689A4232D9B4F1FF3F03D002211B4A42F82410204A52F8202013431D4A13600022164B43F8202000F041F91B4B53F82030F5
:401840004BB10024184B43F8204040F0004000F083FB204612E000F07FFB00200EE003200CE001200AE0072008E0002006E0002004E0002002E0002000E0002086F3108836
:4018800070BD00BFF89CFF1F50270000B081FF1F3089FF1F2489FF1FA081FF1F782700004489FF1F682700001889FF1FF8B50546EFF3108672B63D4B1C680246611CCD20B5
:4018C000FFF734F93A4B1B68002B64D1B4F1FF3F63D0384B53F82430002B60D0364B53F824301D425DD1354B43F824502F490B680120334A42F82300324A52F82370324D30
:401900002A6822EA07022A60304A42F82300304A52F823300B6000F015F9B0F1FF3F05D02C4B53F820202B689A4214D81F4B1D68B5F1FF3F0AD00022214B43F82520254BE3
:4019400053F82520691C3720FFF7F0F845F0004000F002FB1AE00021194A42F82010194A52F820201343184A136000F0A7F8174B53F8203043B10022144B43F8202040F00F
:40198000004000F0E9FA01E000F0E6FA00200B4B43F8240006E0022004E0022002E0012000E0002086F31088F8BD00BFA081FF1FF89CFF1F502700003089FF1F2489FF1FEE
:4019C000B081FF1F682700004489FF1F1889FF1FA481FF1F7827000020B1034A12680260002070470E207047A081FF1F38B500F065F804460E4B53F82030B3B100220C4B33
:401A000043F820200B4D296801313020FFF760F82968094B53F8212001313720FFF786F844F00044054B1C6038BD044B186038BD1889FF1FA081FF1F78270000FC9CFF1FBC
:401A400010B500F07FF8124B1B68B0F1FF3F1AD0104A52F82010104A1268914213D9B3F1FF3F03D002240D4941F8234000210B4B43F820100A4B53F820301A43064B1A6063
:401A8000FFF7B4FF10BD43F00043064A136010BDA081FF1F782700004489FF1FB081FF1F68270000FC9CFF1F034B1B6813B10022014B1A60704700BFEC9CFF1FF0B4184BAD
:401AC00019880B0A174AD356B3F1FF3F01D1535601E008335BB2144D55F82320134850F82200134E56F8224045F82340114D2F6846F822702A60B4F1FF3F09D10E4A42F81B
:401B00002340012202FA03F321EA0301044B19800A4B19680A4A42F820101860F0BC70474089FF1F102600006081FF1FE8A0FF1FFC80FF1F3C89FF1F2081FF1FA081FF1F8A
:401B4000A481FF1F0C4B1A88130A0C49CB56B3F1FF3F01D18B5601E008335BB2B3F1FF3F06D0074A52F82320064B53F8220070474FF0FF30704700BF4089FF1F10260000CC
:401B80006081FF1FE8A0FF1F30B4144B53F82020134C2368134951F823502560124C44F823004FF0FF3441F82340104951F82210A1420AD10E4951F820400E48018821438B
:401BC00001800D4941F8223002E0064840F82130064941F8223030BC704700BF0881FF1F3C89FF1FFC80FF1FE8A0FF1F2081FF1F782700004089FF1F6081FF1F10B150F877
:401C0000210070474FF0FF30704700BF0122014B1A60FEE7F49CFF1FF8B500241AE0651C1B4F57F824102846FEF750FC194B53F8246031462846FEF78FFC2B4657F82420E8
:401C400003210120FEF72AFF324629461020FEF76DFF2C46022CE2DD002416E00E4B53F824500A350D4E56F824102846FEF72EFC2B4656F8242003210120FEF70FFF55228D
:401C800029461420FEF752FF0134002CE6D0F8BDC081FF1F782700003C270000E480FF1F70B50546124B53F8306000241CE0104B03EBC50321465868FFF7A0FF0D4A52F856
:401CC0002030013B42F820300B4B53F82030032B07D10222084B43F820200022074B43F82020FFF751FF0134B442E0D370BD00BF102700001481FF1FB081FF1F3089FF1FD6
:401D000018B908B5FFF7CCFF08BD70471A4B1B4ADA621B4A9A631B4ADA63EFF3108272B6194B1B6823BB10B5044600F055F8174B1C600122144B1A60FFF76EFF2046FFF788
:401D4000DFFFFFF7FFFEB0F1FF3F0ED0104B53F82030104A11680B43136000220E4B43F82020FFF7ABFE00F0F7F862B6FFF74EFF82F31088072070470080FF1F191F0000BB
:401D8000DD1E000091000000F49CFF1F10A1FF1F682700004489FF1FB081FF1F08B5EFF3108272B6094B1968094B1B6833B94FF0FF30084B43F82100002000E0022010B958
:401DC000084600F022F982F3108808BDA081FF1FF89CFF1FF080FF1F38B50D4B1D68EFF3108472B600F068F80A4A136843F07F431360094B2B650321042000F045F8074AA0
:401E0000136843F01003136084F3108838BD00BF08ED00E020ED00E0F902000000E100E0054A137843F0080313701032137843F008031370704700BFA24300400B4A7F2372
:401E400013708021517007E0DA0002F1804202F5F042013BDBB21370002BF5D1DB0003F1804303F5F04300221A707047D881FF1F01BE704708B5034B1B7A00FB03F000F016
:401E8000DFF808BDE081FF1F38B504460D46072902D90020FFF7ECFF1F2C02D90020FFF7E7FF04F01F0000F1604000F564406D01EDB2057038BD00BF18484FF47F0102684F
:401EC0000A43026016486FF07F4102680A400260704714484FF080510160704772B611484FF000610160FFF7ABFD0F48006800F0E3F858B10C4800684FF080730B4A0C491A
:401F00000FB40FB46FF00600004700BF6FF0060062B6004762B600DF08B0704720ED00E01CED00E004ED00E0FC9CFF1F591F0000151F0000EFF308800549086005480068A8
:401F400080F3088870470248006880F308887047F081FF1FCC81FF1F411C8900154A11440968154A136899421AD0F0B444464D4656465F46F0B400B5104C9B002344EFF3FC
:401F800008851D60116089002144096881F3088802BC8E46F0BCA046A946B246BB46F0BC002806DB00B500F07BF802BC8E46FFF7D3BF70479C2700004889FF1FD081FF1F78
:401FC000F0B444464D4656465F46F0B400B5EFF3038308B48000174901440968164A0244EFF30883136088471448804704BC4FF08070024382F3038801BC8646F0BCA04605
:40200000A946B246BB46F0BC704780000A4901440A6882F3088804BC4FF08070024382F3038808BC9E46F0BCA046A946B246BB46F0BC704784270000F4A0FF1F612000002F
:402040000230800803D000BF01380046FCD17047EFF3108072B6704780F31088704700BF08B572B6014B1868FFF7CFFFA081FF1F10B5094C216801313020FEF729FD2168C2
:40208000064B53F8212001313720FEF74FFD2068FFF796FF10BD00BFA081FF1F7827000008B562B6FFF7E4FF72B600F053F8014B186808BDFC9CFF1F00280BDA20F0004047
:4020C0000130054B53F82000044B1B68181A18BF01207047012070479C2700004889FF1F054B53F82020054B53F820309A4201D101207047002070471481FF1F5C2700005E
:4021000038B5FFF7DBFC04460E4B53F82030B3B100220C4B43F820200B4D296801313020FEF7D6FC2968094B53F8212001313720FEF7FCFC44F00044054B1C6038BD044BAE
:40214000186038BD1889FF1FA081FF1F78270000FC9CFF1F38B5444B1C680022434B1A60434A52F82430013342F82430414B53F824502046FFF7B4FF012801D0A54204D178
:4021800003223D4B43F8242003E002223A4B43F824203A4B53F82410394A136823EA01031360384B53F824402F4B1C60B5F1FF3F0FD0314B53F82530032B07D102222E4BB8
:4021C00043F825200022304B43F825202846FFF7DBFCFFF7B7FCB0F1FF3F19D1B4F1FF3F11D00022244B43F824201F4D296801313020FEF76DFC2968244B53F82120013126
:402200003720FEF793FC44F00044214B1C6038BD1E4B53F820201A4B1B689A4216D80022154B43F82420104D296801313020FEF74FFC2968154B53F8212001313720FEF71C
:4022400075FC44F00044124B1C6038BD00210A4A42F82010094A52F820201343084A1360FFF74EFF38BD00BFA081FF1FEC9CFF1F1481FF1FF080FF1FB081FF1F68270000D5
:402280004489FF1FA481FF1F3089FF1F78270000FC9CFF1F014B1868704700BF5482FF1F0E4B70B51E460E4C0025E41AA410A54204D056F8253098470135F8E700F09CFAA3
:4022C000084B094C1E46E41AA4100025A54204D056F8253098470135F8E770BD0428000004280000042800000C28000010B5431E0A44914204D011F8014B03F8014FF8E72A
:4023000010BD03460244934202D003F8011BFAE770470000000000006E65787420736F6E670A000070726576696F757320736F6E670A0000706C617920736F6E670A000056
:40234000696E6372656173696E6720766F6C756D650A000064656372656173696E6720766F6C756D650A0000706175736520736F6E670A00736B697070696E6720736F6ECD
:40238000670A000045786365656465642053594D424F4C5F5441424C455F534C4F54532028736565207854726163654765744C6173744572726F722900000000457863656C
:4023C000656465642053594D424F4C5F4D41585F4C454E4754482028736565207854726163654765744C6173744572726F7229004578636565646564204F424A4543545FAF
:40240000444154415F534C4F54532028736565207854726163654765744C6173744572726F722900537472696E6720746F6F206C6F6E67202873656520785472616365478F
:4024400065744C6173744572726F7229000000005452435F53545245414D5F504F52545F524541445F444154412072657475726E6564206572726F722028213D2030292EF0
:40248000000000005452435F53545245414D5F504F52545F57524954455F444154412072657475726E6564206572726F722028213D2030292E000000496E76616C696420FA
:4024C0006576656E7420636F64652028736565207854726163654765744C6173744572726F722900457863656564656420495352206E657374696E6720287365652078545E
:40250000726163654765744C6173744572726F7229000000445754206E6F7420737570706F727465642028736565207854726163654765744C6173744572726F72290000C0
:402540004457545F435943434E54206E6F7420737570706F727465642028736565207854726163654765744C6173744572726F7229000000436F756C64206E6F7420637282
:402580006561746520547A4374726C2028736565207854726163654765744C6173744572726F7229000000005265636F726465722073746F7070656420696E2070727654EE
:4025C000726163654572726F72282900004F00400C00405100403000000001400010001401408006001B0140000100400140000A004C01400002105001401000801A01401A
:40260000700C0048800000500140F00C00481000FF0001010202020203030303030303030404040404040404040404040404040405050505050505050505050505050505C0
:4026400005050505050505050505050505050505060606060606060606060606060606060606060606060606060606060606060606060606060606060606060606060606EA
:40268000060606060606060606060606060606060707070707070707070707070707070707070707070707070707070707070707070707070707070707070707070707076A
:4026C000070707070707070707070707070707070707070707070707070707070707070707070707070707070707070707070707070707070707070707070707070707071A
:402700000707070707070707070707070707070701000000182700000000000001000000020000000800000000000000FFFFFFFF00000000000000000000000000000000E2
:402740000000000010270000010000000000000000000000000000000100000001000000010000000100000080000000010000000800000001000000010000000100000091
:4027800008000000510100007D0100008101000071200000712000007120000000000000000000000000000001000000616C726D5F53616D706C65416C61726D00000000B1
:4027C00065765F627574746F6E00000074736B5F696E69740000000074736B5F6261636B67726F756E64000074736B5F6C6F67696300000043000000F8B500BFF8BC08BCE7
:402800009E4670474D000000F9100000F8B500BFF8BC08BC9E4670472900000030280000C880FF1F90010000C0200000000000000000000088130000FF00FFFF0100000037
:40284000FFFFFFFF88130000FF000000AC27000000000000FFFFFFFFFFFFFFFFFFFFFFFFFFFFFFFF0100000002000000FFFFFFFF00000000000000000300000001000000FC
:402880000100000001000000FFFFFFFFFFFFFFFFFFFFFFFFFFFFFFFFFFFFFFFFFFFFFFFFFFFFFFFFFFFFFFFFFFFFFFFFFFFFFFFFFFFFFFFFFFFFFFFFFFFFFFFFFFFFFFFF4E
:4028C000FFFFFFFFFFFFFFFFFFFFFFFFFFFFFFFFFFFFFFFFFFFFFFFFFFFFFFFFFFFFFFFFFFFFFFFFFFFFFFFFFFFFFFFFFFFFFFFFFFFFFFFFFFFFFFFFFFFFFFFFFFFFFFFF18
:40290000FFFFFFFFFFFFFFFFFFFFFFFFFFFFFFFFFFFFFFFFFFFFFFFF030000000300000003000000C0270000CC270000D8270000E827000014A3FF1F00000000C0A0FF1F6B
:402940007F800000030000000000A08C401901004800000000A24A04000000000000000000000000000000000000000000000000000000000000000000000000F42700007C
:40298000000000000000000000000000000000000000000000000000000000000000000000000000000000000000000000000000000000000000000000000000F481FF1F84
:4029C00000000000000000000000000000000000000000000000000000000000000000000000000000000000000000000000000000000000000000000000000000000000D7
:402A00000000000000000000000000000000000000000000000000000000000000000000000000000000000000000000000000000000000000000000000000000000000096
:402A40000000000000000000000000000000000000000000000000000000000000000000000000000000000000000000000000000000000000000000000000000000000056
:402A80000000000000000000000000000000000000000000000000000000000000000000000000000000000000000000000000000000000000000000000000000000000016
:020000040003F7
:0200000480007A
:4000000001450040024F004009520040015B004003640040026500403000014035010140250201404C0301401F0401403F0501403B06014040070140420801404609014036
:40004000310A01403D0B01404E0C0140350D0140440E01402B0F014039140140401501402F1601403C170140221801404F190140081A01404E1B01400D40014016410140BA
:400080000C4201400A430140054401400745014009460140094701400548014004490140124C0140104D014006500140035101407E0201400A4B0002010208A90933103816
:4000C0001110609061A47C4027848301880F8B72860F8B3801040601070409010F01111013201520171019081D0223082580274029402B802F02300135FF39083F14580421
:4001000059045C025F01802086018A048C04900894109A209E08A210A640A801AE02B403B67CB880BE40D608D804D904DB04DC29DD90DF01010403020464058106400702A4
:4001400009800A400B040C810D040E041212134214021502172819011A401C041D801E092318280129012A182B0A2E402F0830A83202340135803860390A3B043E013F4434
:400180005D406402804086108710C0F5C2FBC4FDCA3FCC9FCEDFD610D810E002E40401040A020C050D041005170318051D021E0520052404260129042C052D04300232013A
:4001C000330235043604370139203F105804590C5C225F019701B101D602D739D804D904DB0CDC22DD20DF01021003020460084009800B400C010D800F0412431304165114
:400200001C401E021F04220225202688272029012A102B022E802F0830083180368438403A013B443D803F025A206104682869066A846B407090720279407D4082488704C2
:4002400089208B058E019460950696049704980199019A409E189F20A180A204A4A8A602A702A940AF20B202C0C5C2D9C4BDCA3DCC5ACE9BD604D802DE18E080E210E68007
:400280000E021A021F012004270228042E013002320433023401350138083E0452035302580459045B045C215D205F01AE01B001D401D804D904DB0CDC22DD20DF01008074
:4002C0000581060107900A080D480F041008134214401602188019041A081F022108220823042A092B022C402D032F02310933403581360839813AC03B043E803F04450806
:4003000046105E40680869406A207D40924095409620970498409A4B9B409D049E10A540A702AA48AF08B680C0B1C2E2C49BCA9BCCDBCE5BD610DE10E280EC1014011E010E
:40034000220124012A0130013E014060410549FF4AFF4BFF4DA04F045018580459045A045C225D015F01604062C06440654066C068C06AC06CC06EC0C060C105C510C7205F
:40038000C822C9FFCAFFCBFFCDAFCE0FCF04D018D280D804D904DA04DB04DC22DD11DF01E040E2C0E440E540E6C0E8C0EAC0ECC0EEC0012003420520060107D00801090870
:4003C0000C010E100F06120113041580162417011E40280929202A812C202F82310833C235823B043E803F04484A4C084E06500252027340820183088B048C208D489208BC
:4004000093049740984099829A919B109F80A108A302A440A840AB02B140B712C0FBC2FCC4F5CADDCC9BCE52D23CE202E801EC20EE0501560309058409070B380D040F80CC
:400440001201150A1601171019011D041E022184256029802B042D84300131083202337F378039083E013F41406141024240450D46EC47FB483D49FF4AFF4BFF4C224EF0BF
:400480004F0850045602572C580459045A045B045C035F0162C0644065016610671168C069016B116C406D016E406F01D409D904DB04DC20DF010E400F221D041F01276263
:4004C00028022A802D802E092F083090310232403688372039613C023DA83E10459047024E084F085520560857C258045A205B42600164406D8C6E036F1D75808A808D02D5
:400500009063912393109544970898589A329C029D84A020A110A288A481A5C8A601A789B101B208B504B740C2B0CAF8CC7DCEFDD0B0D220D60FD888E202E430E801EC4052
:40054000EE05580459045C225F0181FC8303862088268A118C268D988E098F02919A951396199764983999219A069BD89C209D389FC0A002A102A406A598A702A83FA9028E
:40058000AB98AC04AD9AB007B23EB30FB513B7E0BA2ABB88D602D712D804D904DB04DC03DD30DF01011103010450050408020D080F06109011481408150216121C501E1058
:4005C0001F12242025102688271828022B402D842F88308033013681371839713C023D803E304C044F105E08670C6C25761A7C087F109001912195409610972898409B01BD
:400600009C109F18A204A481A580A742B502C0EBC2E8C4FDCAF9CCF9CE9DD640E2800109030609100D020F0D1503170C19051B0A1C0124012510280129102D1033103601E1
:40064000370F3B803E403F044060410349FF4AFF4BFF4DA04F045018580459045A045C025D015F01604062C06440654066C068C06AC06CC06EC092019A02A602B002B40103
:40068000C020C103C501C702C811C9FFCAFFCBFFCDAFCE0FCF04D018D280D804D904DA04DB04DC21DD11DF01E040E2C0E440E540E6C0E8C0EAC0ECC0EEC0074108400942F4
:4006C0000A040C080D900F8010201542171819021A041B101C01254026042F16309833413718380239633C023D803E1041084204450848204F2051087102880890029120A5
:4007000095409B019F58A408A580A740B110B204C090C2FAC4F4CA70CC6FCEBDD046D220E420EC20060222022E01320234014020410349FF4AFF4BFF4DA04F045018528089
:40074000580459045A045B045C215D115F01604062C06440654066C068C06AC06CC06EC08414862B883896029C109E27A40DA610B203B43CB820C060C103C510C620C80A74
:40078000C9FFCAFFCBFFCDAFCE0FCF04D018D804D904DA04DC20DD01DF01E040E2C0E440E540E6C0E8C0EAC0ECC0EEC00004051007100D800E201082170818141B101D10FC
:4007C0001E202B402D403008310233443745380239603E063F804004422046204C804F2056207002800182028502861087018C10C064C2A0C429CA11CCDBCEDDD046D22092
:40080000E408580459045C225F0183088414851089218A038B0E8CDC8E22910C9323940C9521967197069A209B0C9C109E40A410A540A6ACA703A809AAD0B2E0B360B41F25
:40084000B510B70FB908BA08BB80BF10C063C102C6BEC7C0C82CC9FFCAFFCBFFCEF0CF44D00CD804D904DA04DC33DD03DF01E6C0EA40EB02010202100302051006200701F3
:40088000080E0C100E100F0110011201130417241C041D101E10272929042A112B022C1030043608372538103B043C043D203E103F01441045144E085660570187088C0A10
:4008C0008D04901093059610980999029A109C029E409F21A104A208A302A701B110B301C0EDC2ECC465CA4FCCE2CEE6D060D220E008EC2000040103030404030705090313
:400900000B040C02110A130414031503170C1B082A013003330F340438023B083E114004454049FF4A074BFF4C404D204EF04F0550085401580459045A045B045C325D33D7
:400940005F01604061A862406320D804D904DC22DF010210034204110660071908090C420E100F04120113041402169417401D021E0826082710280929022A012C022F025F
:400980003342360837213A103B043D083E103F0245024F01550456045C015D105E488A8092409304961098499A919B089E249F41A302A701AC08AD02C0FDC2FCC4F5CA0DF0
:4009C000CCE9CEE6D080D6F0EE02004202080402060D08620A140C8D1040141116221A801C8D200D2280248D288D320F348036703A883E105440580459045B045C205F01AA
:400A0000D608D804D904DB04DC22DD90DF010101020204210584084009020A040B400E110F8C1010114017151C031D841F1028122A082D412E043040310232403442360280
:400A4000378039613E083F404110420458806240630264056720689269107110728073228482868088808B809062912392119312954096C09708981A99809A329B15A020A1
:400A8000A102A346A401A588A711AA10ABA0B004B120C0F9C2FBC475CADACC99CE5DD608D878E00AE420E602E801EE020101090119013301580459045C325F010140045040
:400AC000065008420A040D200E221010110113421408150216221D101E601F44201021082520260527052C202F4030203601370438023B103F1A4408450847014D804E049B
:400B0000571459805A405D025E085F0467067E047F0481128D408F029042910392049352954096409708985A9A72A020A301A508A710A910AC05AD10AF06B010B722C0F135
:400B4000C2EBC4FDCAC0CCC4CEE5D0E0D230D680D830E048E210EC2C1280162030203202340836403B823E208601C430CCF0CE70E21005400B200E105004570187018940ED
:400B80008B408C04920197829C08A642AA80AC20C080C230D420D620E610EA40EC2053085A018808920197029C08A642AF10B610D420D640EC401B088602A440A642A70885
:400BC000AB01B040C610E240EE20750285028D20DE04E00857045F0165209920D402D601D8011B0425018B049701B704C608C801E201E8020B480C08440184089708A90153
:400C0000AB05C20ED0042502A440AE40C880EE400080A440B102C04051205620570258205F0460116602841087068A209B809C01AB80AF40D407D607D803E40110107380BE
:400C4000740284029B809C10AA02AC20B001B120B411C408DC01DE04E808EC0D100D110112141A0C1C0D1D0100AB0103100A00005014004906000080001F79006600990029
:400C800000010026F90A0651280000007800000002000080071FF800FF0000000400000007076680181880608000080000000044630205000400C00E18FFFFFF62A0F0411C
:400CC0000C00000018000000040404043333000100000000000040020010301000101012000000000000000000000000000000000F01140000000000040106000D00070052
:400D000038C0C00000030300800040BCBC00B400000000004000000000000000C000000000FFFF00FF000000003939003800000004383800080000000001000000000000E5
:400D40000000000000000000000000000000000000000000000000000000000000000000000000000000000000000000000000000000000000000000000000000000000073
:400D80000000000000000000000000000000000000000000000000000000000000000000000000000000000000000000000000000000000000000000000000000000000033
:400DC00000000000000000000000000000000000000000000000000000000000000000000000000000000000000000000000000000000000000000000000000000000000F3
:400E000000000000000000000000000000000000000000000000000000000000000000000000000000000000000000000000000000000000000000000000000000000000B2
:0200000490006A
:0400000000004007B5
:0200000490105A
:04000000BC90ACAF55
:0200000490303A
:0200000048BDF9
:0200000490402A
:4000000000000000000000000000000000000000000000000000000000000000000000000000000000000000000000000000000000000000000000000000000000000000C0
:400040000000000000000000000000000000000000000000000000000000000000000000000000000000000000000000000000000000000000000000000000000000000080
:400080000000000000000000000000000000000000000000000000000000000000000000000000000000000000000000000000000000000000000000000000000000000040
:4000C0000000000000000000000000000000000000000000000000000000000000000000000000000000000000000000000000000000000000000000000000000000000000
:0200000490501A
:0C00000000012E16106900012E2959265F
:00000001FF